{
  "_format": "hh-sol-artifact-1",
  "contractName": "DecentralizedSocialApp",
  "sourceName": "contracts/DecentralizedSocialApp.sol",
  "abi": [
    {
      "inputs": [],
      "stateMutability": "nonpayable",
      "type": "constructor"
    },
    {
      "anonymous": false,
      "inputs": [
        {
          "indexed": true,
          "internalType": "address",
          "name": "owner",
          "type": "address"
        },
        {
          "indexed": true,
          "internalType": "address",
          "name": "approved",
          "type": "address"
        },
        {
          "indexed": true,
          "internalType": "uint256",
          "name": "tokenId",
          "type": "uint256"
        }
      ],
      "name": "Approval",
      "type": "event"
    },
    {
      "anonymous": false,
      "inputs": [
        {
          "indexed": true,
          "internalType": "address",
          "name": "owner",
          "type": "address"
        },
        {
          "indexed": true,
          "internalType": "address",
          "name": "operator",
          "type": "address"
        },
        {
          "indexed": false,
          "internalType": "bool",
          "name": "approved",
          "type": "bool"
        }
      ],
      "name": "ApprovalForAll",
      "type": "event"
    },
    {
      "anonymous": false,
      "inputs": [
        {
          "indexed": false,
          "internalType": "uint256",
          "name": "id",
          "type": "uint256"
        },
        {
          "indexed": false,
          "internalType": "string",
          "name": "hash",
          "type": "string"
        },
        {
          "indexed": false,
          "internalType": "address",
          "name": "author",
          "type": "address"
        }
      ],
      "name": "PostCreated",
      "type": "event"
    },
    {
      "anonymous": false,
      "inputs": [
        {
          "indexed": true,
          "internalType": "address",
          "name": "from",
          "type": "address"
        },
        {
          "indexed": true,
          "internalType": "address",
          "name": "to",
          "type": "address"
        },
        {
          "indexed": true,
          "internalType": "uint256",
          "name": "tokenId",
          "type": "uint256"
        }
      ],
      "name": "Transfer",
      "type": "event"
    },
    {
      "inputs": [
        {
          "internalType": "address",
          "name": "to",
          "type": "address"
        },
        {
          "internalType": "uint256",
          "name": "tokenId",
          "type": "uint256"
        }
      ],
      "name": "approve",
      "outputs": [],
      "stateMutability": "nonpayable",
      "type": "function"
    },
    {
      "inputs": [
        {
          "internalType": "address",
          "name": "owner",
          "type": "address"
        }
      ],
      "name": "balanceOf",
      "outputs": [
        {
          "internalType": "uint256",
          "name": "",
          "type": "uint256"
        }
      ],
      "stateMutability": "view",
      "type": "function"
    },
    {
      "inputs": [],
      "name": "getAllPosts",
      "outputs": [
        {
          "components": [
            {
              "internalType": "uint256",
              "name": "id",
              "type": "uint256"
            },
            {
              "internalType": "string",
              "name": "hash",
              "type": "string"
            },
            {
              "internalType": "address",
              "name": "author",
              "type": "address"
            }
          ],
          "internalType": "struct DecentralizedSocialApp.Post[]",
          "name": "_posts",
          "type": "tuple[]"
        }
      ],
      "stateMutability": "view",
      "type": "function"
    },
    {
      "inputs": [
        {
          "internalType": "uint256",
          "name": "tokenId",
          "type": "uint256"
        }
      ],
      "name": "getApproved",
      "outputs": [
        {
          "internalType": "address",
          "name": "",
          "type": "address"
        }
      ],
      "stateMutability": "view",
      "type": "function"
    },
    {
      "inputs": [],
      "name": "getMyNfts",
      "outputs": [
        {
          "internalType": "uint256[]",
          "name": "_ids",
          "type": "uint256[]"
        }
      ],
      "stateMutability": "view",
      "type": "function"
    },
    {
      "inputs": [
        {
          "internalType": "address",
          "name": "owner",
          "type": "address"
        },
        {
          "internalType": "address",
          "name": "operator",
          "type": "address"
        }
      ],
      "name": "isApprovedForAll",
      "outputs": [
        {
          "internalType": "bool",
          "name": "",
          "type": "bool"
        }
      ],
      "stateMutability": "view",
      "type": "function"
    },
    {
      "inputs": [
        {
          "internalType": "string",
          "name": "_tokenURI",
          "type": "string"
        }
      ],
      "name": "mint",
      "outputs": [
        {
          "internalType": "uint256",
          "name": "",
          "type": "uint256"
        }
      ],
      "stateMutability": "nonpayable",
      "type": "function"
    },
    {
      "inputs": [],
      "name": "name",
      "outputs": [
        {
          "internalType": "string",
          "name": "",
          "type": "string"
        }
      ],
      "stateMutability": "view",
      "type": "function"
    },
    {
      "inputs": [
        {
          "internalType": "uint256",
          "name": "tokenId",
          "type": "uint256"
        }
      ],
      "name": "ownerOf",
      "outputs": [
        {
          "internalType": "address",
          "name": "",
          "type": "address"
        }
      ],
      "stateMutability": "view",
      "type": "function"
    },
    {
      "inputs": [],
      "name": "postCount",
      "outputs": [
        {
          "internalType": "uint256",
          "name": "",
          "type": "uint256"
        }
      ],
      "stateMutability": "view",
      "type": "function"
    },
    {
      "inputs": [
        {
          "internalType": "uint256",
          "name": "",
          "type": "uint256"
        }
      ],
      "name": "posts",
      "outputs": [
        {
          "internalType": "uint256",
          "name": "id",
          "type": "uint256"
        },
        {
          "internalType": "string",
          "name": "hash",
          "type": "string"
        },
        {
          "internalType": "address",
          "name": "author",
          "type": "address"
        }
      ],
      "stateMutability": "view",
      "type": "function"
    },
    {
      "inputs": [
        {
          "internalType": "address",
          "name": "",
          "type": "address"
        }
      ],
      "name": "profiles",
      "outputs": [
        {
          "internalType": "uint256",
          "name": "",
          "type": "uint256"
        }
      ],
      "stateMutability": "view",
      "type": "function"
    },
    {
      "inputs": [
        {
          "internalType": "address",
          "name": "from",
          "type": "address"
        },
        {
          "internalType": "address",
          "name": "to",
          "type": "address"
        },
        {
          "internalType": "uint256",
          "name": "tokenId",
          "type": "uint256"
        }
      ],
      "name": "safeTransferFrom",
      "outputs": [],
      "stateMutability": "nonpayable",
      "type": "function"
    },
    {
      "inputs": [
        {
          "internalType": "address",
          "name": "from",
          "type": "address"
        },
        {
          "internalType": "address",
          "name": "to",
          "type": "address"
        },
        {
          "internalType": "uint256",
          "name": "tokenId",
          "type": "uint256"
        },
        {
          "internalType": "bytes",
          "name": "_data",
          "type": "bytes"
        }
      ],
      "name": "safeTransferFrom",
      "outputs": [],
      "stateMutability": "nonpayable",
      "type": "function"
    },
    {
      "inputs": [
        {
          "internalType": "address",
          "name": "operator",
          "type": "address"
        },
        {
          "internalType": "bool",
          "name": "approved",
          "type": "bool"
        }
      ],
      "name": "setApprovalForAll",
      "outputs": [],
      "stateMutability": "nonpayable",
      "type": "function"
    },
    {
      "inputs": [
        {
          "internalType": "uint256",
          "name": "_id",
          "type": "uint256"
        }
      ],
      "name": "setProfile",
      "outputs": [],
      "stateMutability": "nonpayable",
      "type": "function"
    },
    {
      "inputs": [
        {
          "internalType": "bytes4",
          "name": "interfaceId",
          "type": "bytes4"
        }
      ],
      "name": "supportsInterface",
      "outputs": [
        {
          "internalType": "bool",
          "name": "",
          "type": "bool"
        }
      ],
      "stateMutability": "view",
      "type": "function"
    },
    {
      "inputs": [],
      "name": "symbol",
      "outputs": [
        {
          "internalType": "string",
          "name": "",
          "type": "string"
        }
      ],
      "stateMutability": "view",
      "type": "function"
    },
    {
      "inputs": [],
      "name": "tokenCount",
      "outputs": [
        {
          "internalType": "uint256",
          "name": "",
          "type": "uint256"
        }
      ],
      "stateMutability": "view",
      "type": "function"
    },
    {
      "inputs": [
        {
          "internalType": "uint256",
          "name": "tokenId",
          "type": "uint256"
        }
      ],
      "name": "tokenURI",
      "outputs": [
        {
          "internalType": "string",
          "name": "",
          "type": "string"
        }
      ],
      "stateMutability": "view",
      "type": "function"
    },
    {
      "inputs": [
        {
          "internalType": "address",
          "name": "from",
          "type": "address"
        },
        {
          "internalType": "address",
          "name": "to",
          "type": "address"
        },
        {
          "internalType": "uint256",
          "name": "tokenId",
          "type": "uint256"
        }
      ],
      "name": "transferFrom",
      "outputs": [],
      "stateMutability": "nonpayable",
      "type": "function"
    },
    {
      "inputs": [
        {
          "internalType": "string",
          "name": "_postHash",
          "type": "string"
        }
      ],
      "name": "uploadPost",
      "outputs": [],
      "stateMutability": "nonpayable",
      "type": "function"
    }
  ],
  "bytecode": "0x60806040523480156200001157600080fd5b506040518060400160405280601681526020017f446563656e7472616c697a6564536f6369616c417070000000000000000000008152506040518060400160405280600481526020017f4441505000000000000000000000000000000000000000000000000000000000815250816000908051906020019062000096929190620000b8565b508060019080519060200190620000af929190620000b8565b505050620001cd565b828054620000c69062000168565b90600052602060002090601f016020900481019282620000ea576000855562000136565b82601f106200010557805160ff191683800117855562000136565b8280016001018555821562000136579182015b828111156200013557825182559160200191906001019062000118565b5b50905062000145919062000149565b5090565b5b80821115620001645760008160009055506001016200014a565b5090565b600060028204905060018216806200018157607f821691505b602082108114156200019857620001976200019e565b5b50919050565b7f4e487b7100000000000000000000000000000000000000000000000000000000600052602260045260246000fd5b61386d80620001dd6000396000f3fe608060405234801561001057600080fd5b50600436106101425760003560e01c806370a08231116100b8578063b88d4fde1161007c578063b88d4fde14610379578063bbe1562714610395578063bdd05adb146103c5578063c87b56dd146103e1578063d85d3d2714610411578063e985e9c51461044157610142565b806370a08231146102d557806385d3cb371461030557806395d89b41146103215780639f181b5e1461033f578063a22cb4651461035d57610142565b80630b1e7f831161010a5780630b1e7f83146101ff57806317906c2e1461023157806323b872dd1461024f578063305611001461026b57806342842e0e146102895780636352211e146102a557610142565b806301ffc9a714610147578063047b07bf1461017757806306fdde0314610195578063081812fc146101b3578063095ea7b3146101e3575b600080fd5b610161600480360381019061015c919061249e565b610471565b60405161016e9190612b38565b60405180910390f35b61017f610553565b60405161018c9190612b16565b60405180910390f35b61019d6106a3565b6040516101aa9190612b53565b60405180910390f35b6101cd60048036038101906101c89190612531565b610735565b6040516101da9190612a8d565b60405180910390f35b6101fd60048036038101906101f89190612462565b6107ba565b005b61021960048036038101906102149190612531565b6108d2565b60405161022893929190612df0565b60405180910390f35b6102396109a4565b6040516102469190612dd5565b60405180910390f35b6102696004803603810190610264919061235c565b6109aa565b005b610273610a0a565b6040516102809190612af4565b60405180910390f35b6102a3600480360381019061029e919061235c565b610c0d565b005b6102bf60048036038101906102ba9190612531565b610c2d565b6040516102cc9190612a8d565b60405180910390f35b6102ef60048036038101906102ea91906122f7565b610cdf565b6040516102fc9190612dd5565b60405180910390f35b61031f600480360381019061031a9190612531565b610d97565b005b610329610e54565b6040516103369190612b53565b60405180910390f35b610347610ee6565b6040516103549190612dd5565b60405180910390f35b61037760048036038101906103729190612426565b610eec565b005b610393600480360381019061038e91906123ab565b610f02565b005b6103af60048036038101906103aa91906122f7565b610f64565b6040516103bc9190612dd5565b60405180910390f35b6103df60048036038101906103da91906124f0565b610f7c565b005b6103fb60048036038101906103f69190612531565b61111c565b6040516104089190612b53565b60405180910390f35b61042b600480360381019061042691906124f0565b61126e565b6040516104389190612dd5565b60405180910390f35b61045b60048036038101906104569190612320565b6112b5565b6040516104689190612b38565b60405180910390f35b60007f80ac58cd000000000000000000000000000000000000000000000000000000007bffffffffffffffffffffffffffffffffffffffffffffffffffffffff1916827bffffffffffffffffffffffffffffffffffffffffffffffffffffffff1916148061053c57507f5b5e139f000000000000000000000000000000000000000000000000000000007bffffffffffffffffffffffffffffffffffffffffffffffffffffffff1916827bffffffffffffffffffffffffffffffffffffffffffffffffffffffff1916145b8061054c575061054b82611349565b5b9050919050565b606061055e33610cdf565b67ffffffffffffffff81111561059d577f4e487b7100000000000000000000000000000000000000000000000000000000600052604160045260246000fd5b6040519080825280602002602001820160405280156105cb5781602001602082028036833780820191505090505b509050600080600754905060005b8181101561069d573373ffffffffffffffffffffffffffffffffffffffff1661060d6001836106089190612f7b565b610c2d565b73ffffffffffffffffffffffffffffffffffffffff16141561068a576001816106369190612f7b565b84848151811061066f577f4e487b7100000000000000000000000000000000000000000000000000000000600052603260045260246000fd5b60200260200101818152505082806106869061314f565b9350505b80806106959061314f565b9150506105d9565b50505090565b6060600080546106b2906130ec565b80601f01602080910402602001604051908101604052809291908181526020018280546106de906130ec565b801561072b5780601f106107005761010080835404028352916020019161072b565b820191906000526020600020905b81548152906001019060200180831161070e57829003601f168201915b5050505050905090565b6000610740826113b3565b61077f576040517f08c379a000000000000000000000000000000000000000000000000000000000815260040161077690612d35565b60405180910390fd5b6004600083815260200190815260200160002060009054906101000a900473ffffffffffffffffffffffffffffffffffffffff169050919050565b60006107c582610c2d565b90508073ffffffffffffffffffffffffffffffffffffffff168373ffffffffffffffffffffffffffffffffffffffff161415610836576040517f08c379a000000000000000000000000000000000000000000000000000000000815260040161082d90612d95565b60405180910390fd5b8073ffffffffffffffffffffffffffffffffffffffff1661085561141f565b73ffffffffffffffffffffffffffffffffffffffff16148061088457506108838161087e61141f565b6112b5565b5b6108c3576040517f08c379a00000000000000000000000000000000000000000000000000000000081526004016108ba90612c55565b60405180910390fd5b6108cd8383611427565b505050565b60096020528060005260406000206000915090508060000154908060010180546108fb906130ec565b80601f0160208091040260200160405190810160405280929190818152602001828054610927906130ec565b80156109745780601f1061094957610100808354040283529160200191610974565b820191906000526020600020905b81548152906001019060200180831161095757829003601f168201915b5050505050908060020160009054906101000a900473ffffffffffffffffffffffffffffffffffffffff16905083565b60085481565b6109bb6109b561141f565b826114e0565b6109fa576040517f08c379a00000000000000000000000000000000000000000000000000000000081526004016109f190612db5565b60405180910390fd5b610a058383836115be565b505050565b606060085467ffffffffffffffff811115610a4e577f4e487b7100000000000000000000000000000000000000000000000000000000600052604160045260246000fd5b604051908082528060200260200182016040528015610a8757816020015b610a746120e4565b815260200190600190039081610a6c5790505b50905060005b8151811015610c095760096000600183610aa79190612f7b565b815260200190815260200160002060405180606001604052908160008201548152602001600182018054610ada906130ec565b80601f0160208091040260200160405190810160405280929190818152602001828054610b06906130ec565b8015610b535780601f10610b2857610100808354040283529160200191610b53565b820191906000526020600020905b815481529060010190602001808311610b3657829003601f168201915b505050505081526020016002820160009054906101000a900473ffffffffffffffffffffffffffffffffffffffff1673ffffffffffffffffffffffffffffffffffffffff1673ffffffffffffffffffffffffffffffffffffffff1681525050828281518110610beb577f4e487b7100000000000000000000000000000000000000000000000000000000600052603260045260246000fd5b60200260200101819052508080610c019061314f565b915050610a8d565b5090565b610c2883838360405180602001604052806000815250610f02565b505050565b6000806002600084815260200190815260200160002060009054906101000a900473ffffffffffffffffffffffffffffffffffffffff169050600073ffffffffffffffffffffffffffffffffffffffff168173ffffffffffffffffffffffffffffffffffffffff161415610cd6576040517f08c379a0000000000000000000000000000000000000000000000000000000008152600401610ccd90612c95565b60405180910390fd5b80915050919050565b60008073ffffffffffffffffffffffffffffffffffffffff168273ffffffffffffffffffffffffffffffffffffffff161415610d50576040517f08c379a0000000000000000000000000000000000000000000000000000000008152600401610d4790612c75565b60405180910390fd5b600360008373ffffffffffffffffffffffffffffffffffffffff1673ffffffffffffffffffffffffffffffffffffffff168152602001908152602001600020549050919050565b3373ffffffffffffffffffffffffffffffffffffffff16610db782610c2d565b73ffffffffffffffffffffffffffffffffffffffff1614610e0d576040517f08c379a0000000000000000000000000000000000000000000000000000000008152600401610e0490612cd5565b60405180910390fd5b80600a60003373ffffffffffffffffffffffffffffffffffffffff1673ffffffffffffffffffffffffffffffffffffffff1681526020019081526020016000208190555050565b606060018054610e63906130ec565b80601f0160208091040260200160405190810160405280929190818152602001828054610e8f906130ec565b8015610edc5780601f10610eb157610100808354040283529160200191610edc565b820191906000526020600020905b815481529060010190602001808311610ebf57829003601f168201915b5050505050905090565b60075481565b610efe610ef761141f565b8383611825565b5050565b610f13610f0d61141f565b836114e0565b610f52576040517f08c379a0000000000000000000000000000000000000000000000000000000008152600401610f4990612db5565b60405180910390fd5b610f5e84848484611992565b50505050565b600a6020528060005260406000206000915090505481565b6000610f8733610cdf565b11610fc7576040517f08c379a0000000000000000000000000000000000000000000000000000000008152600401610fbe90612c15565b60405180910390fd5b600081511161100b576040517f08c379a000000000000000000000000000000000000000000000000000000000815260040161100290612d55565b60405180910390fd5b6008600081548092919061101e9061314f565b9190505550604051806060016040528060085481526020018281526020013373ffffffffffffffffffffffffffffffffffffffff1681525060096000600854815260200190815260200160002060008201518160000155602082015181600101908051906020019061109192919061211b565b5060408201518160020160006101000a81548173ffffffffffffffffffffffffffffffffffffffff021916908373ffffffffffffffffffffffffffffffffffffffff1602179055509050507f618e7c0a5a81623326df1e96b95cff24f2c4577dee149d58c750693fc1059a14600854823360405161111193929190612df0565b60405180910390a150565b6060611127826113b3565b611166576040517f08c379a000000000000000000000000000000000000000000000000000000000815260040161115d90612d15565b60405180910390fd5b6000600660008481526020019081526020016000208054611186906130ec565b80601f01602080910402602001604051908101604052809291908181526020018280546111b2906130ec565b80156111ff5780601f106111d4576101008083540402835291602001916111ff565b820191906000526020600020905b8154815290600101906020018083116111e257829003601f168201915b5050505050905060006112106119ee565b9050600081511415611226578192505050611269565b60008251111561125b578082604051602001611243929190612a69565b60405160208183030381529060405292505050611269565b61126484611a05565b925050505b919050565b6000600760008154809291906112839061314f565b919050555061129433600754611aac565b6112a060075483611aca565b6112ab600754610d97565b6007549050919050565b6000600560008473ffffffffffffffffffffffffffffffffffffffff1673ffffffffffffffffffffffffffffffffffffffff16815260200190815260200160002060008373ffffffffffffffffffffffffffffffffffffffff1673ffffffffffffffffffffffffffffffffffffffff16815260200190815260200160002060009054906101000a900460ff16905092915050565b60007f01ffc9a7000000000000000000000000000000000000000000000000000000007bffffffffffffffffffffffffffffffffffffffffffffffffffffffff1916827bffffffffffffffffffffffffffffffffffffffffffffffffffffffff1916149050919050565b60008073ffffffffffffffffffffffffffffffffffffffff166002600084815260200190815260200160002060009054906101000a900473ffffffffffffffffffffffffffffffffffffffff1673ffffffffffffffffffffffffffffffffffffffff1614159050919050565b600033905090565b816004600083815260200190815260200160002060006101000a81548173ffffffffffffffffffffffffffffffffffffffff021916908373ffffffffffffffffffffffffffffffffffffffff160217905550808273ffffffffffffffffffffffffffffffffffffffff1661149a83610c2d565b73ffffffffffffffffffffffffffffffffffffffff167f8c5be1e5ebec7d5bd14f71427d1e84f3dd0314c0f7b2291e5b200ac8c7c3b92560405160405180910390a45050565b60006114eb826113b3565b61152a576040517f08c379a000000000000000000000000000000000000000000000000000000000815260040161152190612c35565b60405180910390fd5b600061153583610c2d565b90508073ffffffffffffffffffffffffffffffffffffffff168473ffffffffffffffffffffffffffffffffffffffff1614806115a457508373ffffffffffffffffffffffffffffffffffffffff1661158c84610735565b73ffffffffffffffffffffffffffffffffffffffff16145b806115b557506115b481856112b5565b5b91505092915050565b8273ffffffffffffffffffffffffffffffffffffffff166115de82610c2d565b73ffffffffffffffffffffffffffffffffffffffff1614611634576040517f08c379a000000000000000000000000000000000000000000000000000000000815260040161162b90612b95565b60405180910390fd5b600073ffffffffffffffffffffffffffffffffffffffff168273ffffffffffffffffffffffffffffffffffffffff1614156116a4576040517f08c379a000000000000000000000000000000000000000000000000000000000815260040161169b90612bd5565b60405180910390fd5b6116af838383611b3e565b6116ba600082611427565b6001600360008573ffffffffffffffffffffffffffffffffffffffff1673ffffffffffffffffffffffffffffffffffffffff168152602001908152602001600020600082825461170a9190613002565b925050819055506001600360008473ffffffffffffffffffffffffffffffffffffffff1673ffffffffffffffffffffffffffffffffffffffff16815260200190815260200160002060008282546117619190612f7b565b92505081905550816002600083815260200190815260200160002060006101000a81548173ffffffffffffffffffffffffffffffffffffffff021916908373ffffffffffffffffffffffffffffffffffffffff160217905550808273ffffffffffffffffffffffffffffffffffffffff168473ffffffffffffffffffffffffffffffffffffffff167fddf252ad1be2c89b69c2b068fc378daa952ba7f163c4a11628f55a4df523b3ef60405160405180910390a4611820838383611b43565b505050565b8173ffffffffffffffffffffffffffffffffffffffff168373ffffffffffffffffffffffffffffffffffffffff161415611894576040517f08c379a000000000000000000000000000000000000000000000000000000000815260040161188b90612bf5565b60405180910390fd5b80600560008573ffffffffffffffffffffffffffffffffffffffff1673ffffffffffffffffffffffffffffffffffffffff16815260200190815260200160002060008473ffffffffffffffffffffffffffffffffffffffff1673ffffffffffffffffffffffffffffffffffffffff16815260200190815260200160002060006101000a81548160ff0219169083151502179055508173ffffffffffffffffffffffffffffffffffffffff168373ffffffffffffffffffffffffffffffffffffffff167f17307eab39ab6107e8899845ad3d59bd9653f200f220920489ca2b5937696c31836040516119859190612b38565b60405180910390a3505050565b61199d8484846115be565b6119a984848484611b48565b6119e8576040517f08c379a00000000000000000000000000000000000000000000000000000000081526004016119df90612b75565b60405180910390fd5b50505050565b606060405180602001604052806000815250905090565b6060611a10826113b3565b611a4f576040517f08c379a0000000000000000000000000000000000000000000000000000000008152600401611a4690612d75565b60405180910390fd5b6000611a596119ee565b90506000815111611a795760405180602001604052806000815250611aa4565b80611a8384611cdf565b604051602001611a94929190612a69565b6040516020818303038152906040525b915050919050565b611ac6828260405180602001604052806000815250611e8c565b5050565b611ad3826113b3565b611b12576040517f08c379a0000000000000000000000000000000000000000000000000000000008152600401611b0990612cb5565b60405180910390fd5b80600660008481526020019081526020016000209080519060200190611b3992919061211b565b505050565b505050565b505050565b6000611b698473ffffffffffffffffffffffffffffffffffffffff16611ee7565b15611cd2578373ffffffffffffffffffffffffffffffffffffffff1663150b7a02611b9261141f565b8786866040518563ffffffff1660e01b8152600401611bb49493929190612aa8565b602060405180830381600087803b158015611bce57600080fd5b505af1925050508015611bff57506040513d601f19601f82011682018060405250810190611bfc91906124c7565b60015b611c82573d8060008114611c2f576040519150601f19603f3d011682016040523d82523d6000602084013e611c34565b606091505b50600081511415611c7a576040517f08c379a0000000000000000000000000000000000000000000000000000000008152600401611c7190612b75565b60405180910390fd5b805181602001fd5b63150b7a0260e01b7bffffffffffffffffffffffffffffffffffffffffffffffffffffffff1916817bffffffffffffffffffffffffffffffffffffffffffffffffffffffff191614915050611cd7565b600190505b949350505050565b60606000821415611d27576040518060400160405280600181526020017f30000000000000000000000000000000000000000000000000000000000000008152509050611e87565b600082905060005b60008214611d59578080611d429061314f565b915050600a82611d529190612fd1565b9150611d2f565b60008167ffffffffffffffff811115611d9b577f4e487b7100000000000000000000000000000000000000000000000000000000600052604160045260246000fd5b6040519080825280601f01601f191660200182016040528015611dcd5781602001600182028036833780820191505090505b5090505b60008514611e8057600182611de69190613002565b9150600a85611df59190613198565b6030611e019190612f7b565b60f81b818381518110611e3d577f4e487b7100000000000000000000000000000000000000000000000000000000600052603260045260246000fd5b60200101907effffffffffffffffffffffffffffffffffffffffffffffffffffffffffffff1916908160001a905350600a85611e799190612fd1565b9450611dd1565b8093505050505b919050565b611e968383611f0a565b611ea36000848484611b48565b611ee2576040517f08c379a0000000000000000000000000000000000000000000000000000000008152600401611ed990612b75565b60405180910390fd5b505050565b6000808273ffffffffffffffffffffffffffffffffffffffff163b119050919050565b600073ffffffffffffffffffffffffffffffffffffffff168273ffffffffffffffffffffffffffffffffffffffff161415611f7a576040517f08c379a0000000000000000000000000000000000000000000000000000000008152600401611f7190612cf5565b60405180910390fd5b611f83816113b3565b15611fc3576040517f08c379a0000000000000000000000000000000000000000000000000000000008152600401611fba90612bb5565b60405180910390fd5b611fcf60008383611b3e565b6001600360008473ffffffffffffffffffffffffffffffffffffffff1673ffffffffffffffffffffffffffffffffffffffff168152602001908152602001600020600082825461201f9190612f7b565b92505081905550816002600083815260200190815260200160002060006101000a81548173ffffffffffffffffffffffffffffffffffffffff021916908373ffffffffffffffffffffffffffffffffffffffff160217905550808273ffffffffffffffffffffffffffffffffffffffff16600073ffffffffffffffffffffffffffffffffffffffff167fddf252ad1be2c89b69c2b068fc378daa952ba7f163c4a11628f55a4df523b3ef60405160405180910390a46120e060008383611b43565b5050565b60405180606001604052806000815260200160608152602001600073ffffffffffffffffffffffffffffffffffffffff1681525090565b828054612127906130ec565b90600052602060002090601f0160209004810192826121495760008555612190565b82601f1061216257805160ff1916838001178555612190565b82800160010185558215612190579182015b8281111561218f578251825591602001919060010190612174565b5b50905061219d91906121a1565b5090565b5b808211156121ba5760008160009055506001016121a2565b5090565b60006121d16121cc84612e53565b612e2e565b9050828152602081018484840111156121e957600080fd5b6121f48482856130aa565b509392505050565b600061220f61220a84612e84565b612e2e565b90508281526020810184848401111561222757600080fd5b6122328482856130aa565b509392505050565b600081359050612249816137db565b92915050565b60008135905061225e816137f2565b92915050565b60008135905061227381613809565b92915050565b60008151905061228881613809565b92915050565b600082601f83011261229f57600080fd5b81356122af8482602086016121be565b91505092915050565b600082601f8301126122c957600080fd5b81356122d98482602086016121fc565b91505092915050565b6000813590506122f181613820565b92915050565b60006020828403121561230957600080fd5b60006123178482850161223a565b91505092915050565b6000806040838503121561233357600080fd5b60006123418582860161223a565b92505060206123528582860161223a565b9150509250929050565b60008060006060848603121561237157600080fd5b600061237f8682870161223a565b93505060206123908682870161223a565b92505060406123a1868287016122e2565b9150509250925092565b600080600080608085870312156123c157600080fd5b60006123cf8782880161223a565b94505060206123e08782880161223a565b93505060406123f1878288016122e2565b925050606085013567ffffffffffffffff81111561240e57600080fd5b61241a8782880161228e565b91505092959194509250565b6000806040838503121561243957600080fd5b60006124478582860161223a565b92505060206124588582860161224f565b9150509250929050565b6000806040838503121561247557600080fd5b60006124838582860161223a565b9250506020612494858286016122e2565b9150509250929050565b6000602082840312156124b057600080fd5b60006124be84828501612264565b91505092915050565b6000602082840312156124d957600080fd5b60006124e784828501612279565b91505092915050565b60006020828403121561250257600080fd5b600082013567ffffffffffffffff81111561251c57600080fd5b612528848285016122b8565b91505092915050565b60006020828403121561254357600080fd5b6000612551848285016122e2565b91505092915050565b600061256683836129fb565b905092915050565b600061257a8383612a4b565b60208301905092915050565b61258f81613036565b82525050565b61259e81613036565b82525050565b60006125af82612ed5565b6125b98185612f1b565b9350836020820285016125cb85612eb5565b8060005b8581101561260757848403895281516125e8858261255a565b94506125f383612f01565b925060208a019950506001810190506125cf565b50829750879550505050505092915050565b600061262482612ee0565b61262e8185612f2c565b935061263983612ec5565b8060005b8381101561266a578151612651888261256e565b975061265c83612f0e565b92505060018101905061263d565b5085935050505092915050565b61268081613048565b82525050565b600061269182612eeb565b61269b8185612f3d565b93506126ab8185602086016130b9565b6126b481613285565b840191505092915050565b60006126ca82612ef6565b6126d48185612f4e565b93506126e48185602086016130b9565b6126ed81613285565b840191505092915050565b600061270382612ef6565b61270d8185612f5f565b935061271d8185602086016130b9565b61272681613285565b840191505092915050565b600061273c82612ef6565b6127468185612f70565b93506127568185602086016130b9565b80840191505092915050565b600061276f603283612f5f565b915061277a82613296565b604082019050919050565b6000612792602583612f5f565b915061279d826132e5565b604082019050919050565b60006127b5601c83612f5f565b91506127c082613334565b602082019050919050565b60006127d8602483612f5f565b91506127e38261335d565b604082019050919050565b60006127fb601983612f5f565b9150612806826133ac565b602082019050919050565b600061281e602683612f5f565b9150612829826133d5565b604082019050919050565b6000612841602c83612f5f565b915061284c82613424565b604082019050919050565b6000612864603883612f5f565b915061286f82613473565b604082019050919050565b6000612887602a83612f5f565b9150612892826134c2565b604082019050919050565b60006128aa602983612f5f565b91506128b582613511565b604082019050919050565b60006128cd602e83612f5f565b91506128d882613560565b604082019050919050565b60006128f0603383612f5f565b91506128fb826135af565b604082019050919050565b6000612913602083612f5f565b915061291e826135fe565b602082019050919050565b6000612936603183612f5f565b915061294182613627565b604082019050919050565b6000612959602c83612f5f565b915061296482613676565b604082019050919050565b600061297c601983612f5f565b9150612987826136c5565b602082019050919050565b600061299f602f83612f5f565b91506129aa826136ee565b604082019050919050565b60006129c2602183612f5f565b91506129cd8261373d565b604082019050919050565b60006129e5603183612f5f565b91506129f08261378c565b604082019050919050565b6000606083016000830151612a136000860182612a4b565b5060208301518482036020860152612a2b82826126bf565b9150506040830151612a406040860182612586565b508091505092915050565b612a54816130a0565b82525050565b612a63816130a0565b82525050565b6000612a758285612731565b9150612a818284612731565b91508190509392505050565b6000602082019050612aa26000830184612595565b92915050565b6000608082019050612abd6000830187612595565b612aca6020830186612595565b612ad76040830185612a5a565b8181036060830152612ae98184612686565b905095945050505050565b60006020820190508181036000830152612b0e81846125a4565b905092915050565b60006020820190508181036000830152612b308184612619565b905092915050565b6000602082019050612b4d6000830184612677565b92915050565b60006020820190508181036000830152612b6d81846126f8565b905092915050565b60006020820190508181036000830152612b8e81612762565b9050919050565b60006020820190508181036000830152612bae81612785565b9050919050565b60006020820190508181036000830152612bce816127a8565b9050919050565b60006020820190508181036000830152612bee816127cb565b9050919050565b60006020820190508181036000830152612c0e816127ee565b9050919050565b60006020820190508181036000830152612c2e81612811565b9050919050565b60006020820190508181036000830152612c4e81612834565b9050919050565b60006020820190508181036000830152612c6e81612857565b9050919050565b60006020820190508181036000830152612c8e8161287a565b9050919050565b60006020820190508181036000830152612cae8161289d565b9050919050565b60006020820190508181036000830152612cce816128c0565b9050919050565b60006020820190508181036000830152612cee816128e3565b9050919050565b60006020820190508181036000830152612d0e81612906565b9050919050565b60006020820190508181036000830152612d2e81612929565b9050919050565b60006020820190508181036000830152612d4e8161294c565b9050919050565b60006020820190508181036000830152612d6e8161296f565b9050919050565b60006020820190508181036000830152612d8e81612992565b9050919050565b60006020820190508181036000830152612dae816129b5565b9050919050565b60006020820190508181036000830152612dce816129d8565b9050919050565b6000602082019050612dea6000830184612a5a565b92915050565b6000606082019050612e056000830186612a5a565b8181036020830152612e1781856126f8565b9050612e266040830184612595565b949350505050565b6000612e38612e49565b9050612e44828261311e565b919050565b6000604051905090565b600067ffffffffffffffff821115612e6e57612e6d613256565b5b612e7782613285565b9050602081019050919050565b600067ffffffffffffffff821115612e9f57612e9e613256565b5b612ea882613285565b9050602081019050919050565b6000819050602082019050919050565b6000819050602082019050919050565b600081519050919050565b600081519050919050565b600081519050919050565b600081519050919050565b6000602082019050919050565b6000602082019050919050565b600082825260208201905092915050565b600082825260208201905092915050565b600082825260208201905092915050565b600082825260208201905092915050565b600082825260208201905092915050565b600081905092915050565b6000612f86826130a0565b9150612f91836130a0565b9250827fffffffffffffffffffffffffffffffffffffffffffffffffffffffffffffffff03821115612fc657612fc56131c9565b5b828201905092915050565b6000612fdc826130a0565b9150612fe7836130a0565b925082612ff757612ff66131f8565b5b828204905092915050565b600061300d826130a0565b9150613018836130a0565b92508282101561302b5761302a6131c9565b5b828203905092915050565b600061304182613080565b9050919050565b60008115159050919050565b60007fffffffff0000000000000000000000000000000000000000000000000000000082169050919050565b600073ffffffffffffffffffffffffffffffffffffffff82169050919050565b6000819050919050565b82818337600083830152505050565b60005b838110156130d75780820151818401526020810190506130bc565b838111156130e6576000848401525b50505050565b6000600282049050600182168061310457607f821691505b6020821081141561311857613117613227565b5b50919050565b61312782613285565b810181811067ffffffffffffffff8211171561314657613145613256565b5b80604052505050565b600061315a826130a0565b91507fffffffffffffffffffffffffffffffffffffffffffffffffffffffffffffffff82141561318d5761318c6131c9565b5b600182019050919050565b60006131a3826130a0565b91506131ae836130a0565b9250826131be576131bd6131f8565b5b828206905092915050565b7f4e487b7100000000000000000000000000000000000000000000000000000000600052601160045260246000fd5b7f4e487b7100000000000000000000000000000000000000000000000000000000600052601260045260246000fd5b7f4e487b7100000000000000000000000000000000000000000000000000000000600052602260045260246000fd5b7f4e487b7100000000000000000000000000000000000000000000000000000000600052604160045260246000fd5b6000601f19601f8301169050919050565b7f4552433732313a207472616e7366657220746f206e6f6e20455243373231526560008201527f63656976657220696d706c656d656e7465720000000000000000000000000000602082015250565b7f4552433732313a207472616e736665722066726f6d20696e636f72726563742060008201527f6f776e6572000000000000000000000000000000000000000000000000000000602082015250565b7f4552433732313a20746f6b656e20616c7265616479206d696e74656400000000600082015250565b7f4552433732313a207472616e7366657220746f20746865207a65726f2061646460008201527f7265737300000000000000000000000000000000000000000000000000000000602082015250565b7f4552433732313a20617070726f766520746f2063616c6c657200000000000000600082015250565b7f4d757374206f776e206120446563656e74726154776974746572204e4654207460008201527f6f20706f73740000000000000000000000000000000000000000000000000000602082015250565b7f4552433732313a206f70657261746f7220717565727920666f72206e6f6e657860008201527f697374656e7420746f6b656e0000000000000000000000000000000000000000602082015250565b7f4552433732313a20617070726f76652063616c6c6572206973206e6f74206f7760008201527f6e6572206e6f7220617070726f76656420666f7220616c6c0000000000000000602082015250565b7f4552433732313a2062616c616e636520717565727920666f7220746865207a6560008201527f726f206164647265737300000000000000000000000000000000000000000000602082015250565b7f4552433732313a206f776e657220717565727920666f72206e6f6e657869737460008201527f656e7420746f6b656e0000000000000000000000000000000000000000000000602082015250565b7f45524337323155524953746f726167653a2055524920736574206f66206e6f6e60008201527f6578697374656e7420746f6b656e000000000000000000000000000000000000602082015250565b7f4d757374204f776e20746865206e667420796f752077616e7420746f2073656c60008201527f65637420617320796f75722070726f66696c6500000000000000000000000000602082015250565b7f4552433732313a206d696e7420746f20746865207a65726f2061646472657373600082015250565b7f45524337323155524953746f726167653a2055524920717565727920666f722060008201527f6e6f6e6578697374656e7420746f6b656e000000000000000000000000000000602082015250565b7f4552433732313a20617070726f76656420717565727920666f72206e6f6e657860008201527f697374656e7420746f6b656e0000000000000000000000000000000000000000602082015250565b7f43616e6e6f74207061737320616e20656d707479206861736800000000000000600082015250565b7f4552433732314d657461646174613a2055524920717565727920666f72206e6f60008201527f6e6578697374656e7420746f6b656e0000000000000000000000000000000000602082015250565b7f4552433732313a20617070726f76616c20746f2063757272656e74206f776e6560008201527f7200000000000000000000000000000000000000000000000000000000000000602082015250565b7f4552433732313a207472616e736665722063616c6c6572206973206e6f74206f60008201527f776e6572206e6f7220617070726f766564000000000000000000000000000000602082015250565b6137e481613036565b81146137ef57600080fd5b50565b6137fb81613048565b811461380657600080fd5b50565b61381281613054565b811461381d57600080fd5b50565b613829816130a0565b811461383457600080fd5b5056fea2646970667358221220b0d6713c3b60c2e11598603c03a96d1510e875e0f287a9edf067bff66c2a2e2564736f6c63430008040033",
  "linkReferences": {},
  "deployedLinkReferences": {}
}