{
  "_format": "hh-sol-artifact-1",
  "contractName": "DecentralizedSocialApp",
  "sourceName": "contracts/DecentralizedSocialApp.sol",
  "abi": [
    {
      "inputs": [],
      "stateMutability": "nonpayable",
      "type": "constructor"
    },
    {
      "anonymous": false,
      "inputs": [
        {
          "indexed": true,
          "internalType": "address",
          "name": "owner",
          "type": "address"
        },
        {
          "indexed": true,
          "internalType": "address",
          "name": "approved",
          "type": "address"
        },
        {
          "indexed": true,
          "internalType": "uint256",
          "name": "tokenId",
          "type": "uint256"
        }
      ],
      "name": "Approval",
      "type": "event"
    },
    {
      "anonymous": false,
      "inputs": [
        {
          "indexed": true,
          "internalType": "address",
          "name": "owner",
          "type": "address"
        },
        {
          "indexed": true,
          "internalType": "address",
          "name": "operator",
          "type": "address"
        },
        {
          "indexed": false,
          "internalType": "bool",
          "name": "approved",
          "type": "bool"
        }
      ],
      "name": "ApprovalForAll",
      "type": "event"
    },
    {
      "anonymous": false,
      "inputs": [
        {
          "indexed": false,
          "internalType": "uint256",
          "name": "id",
          "type": "uint256"
        },
        {
          "indexed": false,
          "internalType": "string",
          "name": "hash",
          "type": "string"
        },
        {
          "indexed": false,
          "internalType": "address",
          "name": "author",
          "type": "address"
        }
      ],
      "name": "PostCreated",
      "type": "event"
    },
    {
      "anonymous": false,
      "inputs": [
        {
          "indexed": true,
          "internalType": "address",
          "name": "from",
          "type": "address"
        },
        {
          "indexed": true,
          "internalType": "address",
          "name": "to",
          "type": "address"
        },
        {
          "indexed": true,
          "internalType": "uint256",
          "name": "tokenId",
          "type": "uint256"
        }
      ],
      "name": "Transfer",
      "type": "event"
    },
    {
      "inputs": [
        {
          "internalType": "address",
          "name": "to",
          "type": "address"
        },
        {
          "internalType": "uint256",
          "name": "tokenId",
          "type": "uint256"
        }
      ],
      "name": "approve",
      "outputs": [],
      "stateMutability": "nonpayable",
      "type": "function"
    },
    {
      "inputs": [
        {
          "internalType": "address",
          "name": "owner",
          "type": "address"
        }
      ],
      "name": "balanceOf",
      "outputs": [
        {
          "internalType": "uint256",
          "name": "",
          "type": "uint256"
        }
      ],
      "stateMutability": "view",
      "type": "function"
    },
    {
      "inputs": [],
      "name": "getAllPosts",
      "outputs": [
        {
          "components": [
            {
              "internalType": "uint256",
              "name": "id",
              "type": "uint256"
            },
            {
              "internalType": "string",
              "name": "hash",
              "type": "string"
            },
            {
              "internalType": "address",
              "name": "author",
              "type": "address"
            }
          ],
          "internalType": "struct DecentralizedSocialApp.Post[]",
          "name": "_posts",
          "type": "tuple[]"
        }
      ],
      "stateMutability": "view",
      "type": "function"
    },
    {
      "inputs": [
        {
          "internalType": "uint256",
          "name": "tokenId",
          "type": "uint256"
        }
      ],
      "name": "getApproved",
      "outputs": [
        {
          "internalType": "address",
          "name": "",
          "type": "address"
        }
      ],
      "stateMutability": "view",
      "type": "function"
    },
    {
      "inputs": [
        {
          "internalType": "address",
          "name": "owner",
          "type": "address"
        },
        {
          "internalType": "address",
          "name": "operator",
          "type": "address"
        }
      ],
      "name": "isApprovedForAll",
      "outputs": [
        {
          "internalType": "bool",
          "name": "",
          "type": "bool"
        }
      ],
      "stateMutability": "view",
      "type": "function"
    },
    {
      "inputs": [
        {
          "internalType": "string",
          "name": "_tokenURI",
          "type": "string"
        }
      ],
      "name": "mint",
      "outputs": [
        {
          "internalType": "uint256",
          "name": "",
          "type": "uint256"
        }
      ],
      "stateMutability": "nonpayable",
      "type": "function"
    },
    {
      "inputs": [],
      "name": "name",
      "outputs": [
        {
          "internalType": "string",
          "name": "",
          "type": "string"
        }
      ],
      "stateMutability": "view",
      "type": "function"
    },
    {
      "inputs": [
        {
          "internalType": "uint256",
          "name": "tokenId",
          "type": "uint256"
        }
      ],
      "name": "ownerOf",
      "outputs": [
        {
          "internalType": "address",
          "name": "",
          "type": "address"
        }
      ],
      "stateMutability": "view",
      "type": "function"
    },
    {
      "inputs": [],
      "name": "postCount",
      "outputs": [
        {
          "internalType": "uint256",
          "name": "",
          "type": "uint256"
        }
      ],
      "stateMutability": "view",
      "type": "function"
    },
    {
      "inputs": [
        {
          "internalType": "uint256",
          "name": "",
          "type": "uint256"
        }
      ],
      "name": "posts",
      "outputs": [
        {
          "internalType": "uint256",
          "name": "id",
          "type": "uint256"
        },
        {
          "internalType": "string",
          "name": "hash",
          "type": "string"
        },
        {
          "internalType": "address",
          "name": "author",
          "type": "address"
        }
      ],
      "stateMutability": "view",
      "type": "function"
    },
    {
      "inputs": [
        {
          "internalType": "address",
          "name": "",
          "type": "address"
        }
      ],
      "name": "profiles",
      "outputs": [
        {
          "internalType": "uint256",
          "name": "",
          "type": "uint256"
        }
      ],
      "stateMutability": "view",
      "type": "function"
    },
    {
      "inputs": [
        {
          "internalType": "address",
          "name": "from",
          "type": "address"
        },
        {
          "internalType": "address",
          "name": "to",
          "type": "address"
        },
        {
          "internalType": "uint256",
          "name": "tokenId",
          "type": "uint256"
        }
      ],
      "name": "safeTransferFrom",
      "outputs": [],
      "stateMutability": "nonpayable",
      "type": "function"
    },
    {
      "inputs": [
        {
          "internalType": "address",
          "name": "from",
          "type": "address"
        },
        {
          "internalType": "address",
          "name": "to",
          "type": "address"
        },
        {
          "internalType": "uint256",
          "name": "tokenId",
          "type": "uint256"
        },
        {
          "internalType": "bytes",
          "name": "_data",
          "type": "bytes"
        }
      ],
      "name": "safeTransferFrom",
      "outputs": [],
      "stateMutability": "nonpayable",
      "type": "function"
    },
    {
      "inputs": [
        {
          "internalType": "address",
          "name": "operator",
          "type": "address"
        },
        {
          "internalType": "bool",
          "name": "approved",
          "type": "bool"
        }
      ],
      "name": "setApprovalForAll",
      "outputs": [],
      "stateMutability": "nonpayable",
      "type": "function"
    },
    {
      "inputs": [
        {
          "internalType": "uint256",
          "name": "_id",
          "type": "uint256"
        }
      ],
      "name": "setProfile",
      "outputs": [],
      "stateMutability": "nonpayable",
      "type": "function"
    },
    {
      "inputs": [
        {
          "internalType": "bytes4",
          "name": "interfaceId",
          "type": "bytes4"
        }
      ],
      "name": "supportsInterface",
      "outputs": [
        {
          "internalType": "bool",
          "name": "",
          "type": "bool"
        }
      ],
      "stateMutability": "view",
      "type": "function"
    },
    {
      "inputs": [],
      "name": "symbol",
      "outputs": [
        {
          "internalType": "string",
          "name": "",
          "type": "string"
        }
      ],
      "stateMutability": "view",
      "type": "function"
    },
    {
      "inputs": [],
      "name": "tokenCount",
      "outputs": [
        {
          "internalType": "uint256",
          "name": "",
          "type": "uint256"
        }
      ],
      "stateMutability": "view",
      "type": "function"
    },
    {
      "inputs": [
        {
          "internalType": "uint256",
          "name": "tokenId",
          "type": "uint256"
        }
      ],
      "name": "tokenURI",
      "outputs": [
        {
          "internalType": "string",
          "name": "",
          "type": "string"
        }
      ],
      "stateMutability": "view",
      "type": "function"
    },
    {
      "inputs": [
        {
          "internalType": "address",
          "name": "from",
          "type": "address"
        },
        {
          "internalType": "address",
          "name": "to",
          "type": "address"
        },
        {
          "internalType": "uint256",
          "name": "tokenId",
          "type": "uint256"
        }
      ],
      "name": "transferFrom",
      "outputs": [],
      "stateMutability": "nonpayable",
      "type": "function"
    }
  ],
  "bytecode": "0x60806040523480156200001157600080fd5b506040518060400160405280601681526020017f446563656e7472616c697a6564536f6369616c417070000000000000000000008152506040518060400160405280600481526020017f4441505000000000000000000000000000000000000000000000000000000000815250816000908051906020019062000096929190620000b8565b508060019080519060200190620000af929190620000b8565b505050620001cd565b828054620000c69062000168565b90600052602060002090601f016020900481019282620000ea576000855562000136565b82601f106200010557805160ff191683800117855562000136565b8280016001018555821562000136579182015b828111156200013557825182559160200191906001019062000118565b5b50905062000145919062000149565b5090565b5b80821115620001645760008160009055506001016200014a565b5090565b600060028204905060018216806200018157607f821691505b602082108114156200019857620001976200019e565b5b50919050565b7f4e487b7100000000000000000000000000000000000000000000000000000000600052602260045260246000fd5b61335e80620001dd6000396000f3fe608060405234801561001057600080fd5b506004361061012c5760003560e01c806370a08231116100ad578063b88d4fde11610071578063b88d4fde14610345578063bbe1562714610361578063c87b56dd14610391578063d85d3d27146103c1578063e985e9c5146103f15761012c565b806370a08231146102a157806385d3cb37146102d157806395d89b41146102ed5780639f181b5e1461030b578063a22cb465146103295761012c565b806317906c2e116100f457806317906c2e146101fd57806323b872dd1461021b578063305611001461023757806342842e0e146102555780636352211e146102715761012c565b806301ffc9a71461013157806306fdde0314610161578063081812fc1461017f578063095ea7b3146101af5780630b1e7f83146101cb575b600080fd5b61014b6004803603810190610146919061215e565b610421565b604051610158919061271a565b60405180910390f35b610169610503565b6040516101769190612735565b60405180910390f35b610199600480360381019061019491906121f1565b610595565b6040516101a69190612691565b60405180910390f35b6101c960048036038101906101c49190612122565b61061a565b005b6101e560048036038101906101e091906121f1565b610732565b6040516101f493929190612992565b60405180910390f35b610205610804565b6040516102129190612977565b60405180910390f35b6102356004803603810190610230919061201c565b61080a565b005b61023f61086a565b60405161024c91906126f8565b60405180910390f35b61026f600480360381019061026a919061201c565b610a6d565b005b61028b600480360381019061028691906121f1565b610a8d565b6040516102989190612691565b60405180910390f35b6102bb60048036038101906102b69190611fb7565b610b3f565b6040516102c89190612977565b60405180910390f35b6102eb60048036038101906102e691906121f1565b610bf7565b005b6102f5610cb4565b6040516103029190612735565b60405180910390f35b610313610d46565b6040516103209190612977565b60405180910390f35b610343600480360381019061033e91906120e6565b610d4c565b005b61035f600480360381019061035a919061206b565b610d62565b005b61037b60048036038101906103769190611fb7565b610dc4565b6040516103889190612977565b60405180910390f35b6103ab60048036038101906103a691906121f1565b610ddc565b6040516103b89190612735565b60405180910390f35b6103db60048036038101906103d691906121b0565b610f2e565b6040516103e89190612977565b60405180910390f35b61040b60048036038101906104069190611fe0565b610f75565b604051610418919061271a565b60405180910390f35b60007f80ac58cd000000000000000000000000000000000000000000000000000000007bffffffffffffffffffffffffffffffffffffffffffffffffffffffff1916827bffffffffffffffffffffffffffffffffffffffffffffffffffffffff191614806104ec57507f5b5e139f000000000000000000000000000000000000000000000000000000007bffffffffffffffffffffffffffffffffffffffffffffffffffffffff1916827bffffffffffffffffffffffffffffffffffffffffffffffffffffffff1916145b806104fc57506104fb82611009565b5b9050919050565b60606000805461051290612c55565b80601f016020809104026020016040519081016040528092919081815260200182805461053e90612c55565b801561058b5780601f106105605761010080835404028352916020019161058b565b820191906000526020600020905b81548152906001019060200180831161056e57829003601f168201915b5050505050905090565b60006105a082611073565b6105df576040517f08c379a00000000000000000000000000000000000000000000000000000000081526004016105d6906128f7565b60405180910390fd5b6004600083815260200190815260200160002060009054906101000a900473ffffffffffffffffffffffffffffffffffffffff169050919050565b600061062582610a8d565b90508073ffffffffffffffffffffffffffffffffffffffff168373ffffffffffffffffffffffffffffffffffffffff161415610696576040517f08c379a000000000000000000000000000000000000000000000000000000000815260040161068d90612937565b60405180910390fd5b8073ffffffffffffffffffffffffffffffffffffffff166106b56110df565b73ffffffffffffffffffffffffffffffffffffffff1614806106e457506106e3816106de6110df565b610f75565b5b610723576040517f08c379a000000000000000000000000000000000000000000000000000000000815260040161071a90612817565b60405180910390fd5b61072d83836110e7565b505050565b600960205280600052604060002060009150905080600001549080600101805461075b90612c55565b80601f016020809104026020016040519081016040528092919081815260200182805461078790612c55565b80156107d45780601f106107a9576101008083540402835291602001916107d4565b820191906000526020600020905b8154815290600101906020018083116107b757829003601f168201915b5050505050908060020160009054906101000a900473ffffffffffffffffffffffffffffffffffffffff16905083565b60085481565b61081b6108156110df565b826111a0565b61085a576040517f08c379a000000000000000000000000000000000000000000000000000000000815260040161085190612957565b60405180910390fd5b61086583838361127e565b505050565b606060085467ffffffffffffffff8111156108ae577f4e487b7100000000000000000000000000000000000000000000000000000000600052604160045260246000fd5b6040519080825280602002602001820160405280156108e757816020015b6108d4611da4565b8152602001906001900390816108cc5790505b50905060005b8151811015610a6957600960006001836109079190612ae4565b81526020019081526020016000206040518060600160405290816000820154815260200160018201805461093a90612c55565b80601f016020809104026020016040519081016040528092919081815260200182805461096690612c55565b80156109b35780601f10610988576101008083540402835291602001916109b3565b820191906000526020600020905b81548152906001019060200180831161099657829003601f168201915b505050505081526020016002820160009054906101000a900473ffffffffffffffffffffffffffffffffffffffff1673ffffffffffffffffffffffffffffffffffffffff1673ffffffffffffffffffffffffffffffffffffffff1681525050828281518110610a4b577f4e487b7100000000000000000000000000000000000000000000000000000000600052603260045260246000fd5b60200260200101819052508080610a6190612cb8565b9150506108ed565b5090565b610a8883838360405180602001604052806000815250610d62565b505050565b6000806002600084815260200190815260200160002060009054906101000a900473ffffffffffffffffffffffffffffffffffffffff169050600073ffffffffffffffffffffffffffffffffffffffff168173ffffffffffffffffffffffffffffffffffffffff161415610b36576040517f08c379a0000000000000000000000000000000000000000000000000000000008152600401610b2d90612857565b60405180910390fd5b80915050919050565b60008073ffffffffffffffffffffffffffffffffffffffff168273ffffffffffffffffffffffffffffffffffffffff161415610bb0576040517f08c379a0000000000000000000000000000000000000000000000000000000008152600401610ba790612837565b60405180910390fd5b600360008373ffffffffffffffffffffffffffffffffffffffff1673ffffffffffffffffffffffffffffffffffffffff168152602001908152602001600020549050919050565b3373ffffffffffffffffffffffffffffffffffffffff16610c1782610a8d565b73ffffffffffffffffffffffffffffffffffffffff1614610c6d576040517f08c379a0000000000000000000000000000000000000000000000000000000008152600401610c6490612897565b60405180910390fd5b80600a60003373ffffffffffffffffffffffffffffffffffffffff1673ffffffffffffffffffffffffffffffffffffffff1681526020019081526020016000208190555050565b606060018054610cc390612c55565b80601f0160208091040260200160405190810160405280929190818152602001828054610cef90612c55565b8015610d3c5780601f10610d1157610100808354040283529160200191610d3c565b820191906000526020600020905b815481529060010190602001808311610d1f57829003601f168201915b5050505050905090565b60075481565b610d5e610d576110df565b83836114e5565b5050565b610d73610d6d6110df565b836111a0565b610db2576040517f08c379a0000000000000000000000000000000000000000000000000000000008152600401610da990612957565b60405180910390fd5b610dbe84848484611652565b50505050565b600a6020528060005260406000206000915090505481565b6060610de782611073565b610e26576040517f08c379a0000000000000000000000000000000000000000000000000000000008152600401610e1d906128d7565b60405180910390fd5b6000600660008481526020019081526020016000208054610e4690612c55565b80601f0160208091040260200160405190810160405280929190818152602001828054610e7290612c55565b8015610ebf5780601f10610e9457610100808354040283529160200191610ebf565b820191906000526020600020905b815481529060010190602001808311610ea257829003601f168201915b505050505090506000610ed06116ae565b9050600081511415610ee6578192505050610f29565b600082511115610f1b578082604051602001610f0392919061266d565b60405160208183030381529060405292505050610f29565b610f24846116c5565b925050505b919050565b600060076000815480929190610f4390612cb8565b9190505550610f543360075461176c565b610f606007548361178a565b610f6b600754610bf7565b6007549050919050565b6000600560008473ffffffffffffffffffffffffffffffffffffffff1673ffffffffffffffffffffffffffffffffffffffff16815260200190815260200160002060008373ffffffffffffffffffffffffffffffffffffffff1673ffffffffffffffffffffffffffffffffffffffff16815260200190815260200160002060009054906101000a900460ff16905092915050565b60007f01ffc9a7000000000000000000000000000000000000000000000000000000007bffffffffffffffffffffffffffffffffffffffffffffffffffffffff1916827bffffffffffffffffffffffffffffffffffffffffffffffffffffffff1916149050919050565b60008073ffffffffffffffffffffffffffffffffffffffff166002600084815260200190815260200160002060009054906101000a900473ffffffffffffffffffffffffffffffffffffffff1673ffffffffffffffffffffffffffffffffffffffff1614159050919050565b600033905090565b816004600083815260200190815260200160002060006101000a81548173ffffffffffffffffffffffffffffffffffffffff021916908373ffffffffffffffffffffffffffffffffffffffff160217905550808273ffffffffffffffffffffffffffffffffffffffff1661115a83610a8d565b73ffffffffffffffffffffffffffffffffffffffff167f8c5be1e5ebec7d5bd14f71427d1e84f3dd0314c0f7b2291e5b200ac8c7c3b92560405160405180910390a45050565b60006111ab82611073565b6111ea576040517f08c379a00000000000000000000000000000000000000000000000000000000081526004016111e1906127f7565b60405180910390fd5b60006111f583610a8d565b90508073ffffffffffffffffffffffffffffffffffffffff168473ffffffffffffffffffffffffffffffffffffffff16148061126457508373ffffffffffffffffffffffffffffffffffffffff1661124c84610595565b73ffffffffffffffffffffffffffffffffffffffff16145b8061127557506112748185610f75565b5b91505092915050565b8273ffffffffffffffffffffffffffffffffffffffff1661129e82610a8d565b73ffffffffffffffffffffffffffffffffffffffff16146112f4576040517f08c379a00000000000000000000000000000000000000000000000000000000081526004016112eb90612777565b60405180910390fd5b600073ffffffffffffffffffffffffffffffffffffffff168273ffffffffffffffffffffffffffffffffffffffff161415611364576040517f08c379a000000000000000000000000000000000000000000000000000000000815260040161135b906127b7565b60405180910390fd5b61136f8383836117fe565b61137a6000826110e7565b6001600360008573ffffffffffffffffffffffffffffffffffffffff1673ffffffffffffffffffffffffffffffffffffffff16815260200190815260200160002060008282546113ca9190612b6b565b925050819055506001600360008473ffffffffffffffffffffffffffffffffffffffff1673ffffffffffffffffffffffffffffffffffffffff16815260200190815260200160002060008282546114219190612ae4565b92505081905550816002600083815260200190815260200160002060006101000a81548173ffffffffffffffffffffffffffffffffffffffff021916908373ffffffffffffffffffffffffffffffffffffffff160217905550808273ffffffffffffffffffffffffffffffffffffffff168473ffffffffffffffffffffffffffffffffffffffff167fddf252ad1be2c89b69c2b068fc378daa952ba7f163c4a11628f55a4df523b3ef60405160405180910390a46114e0838383611803565b505050565b8173ffffffffffffffffffffffffffffffffffffffff168373ffffffffffffffffffffffffffffffffffffffff161415611554576040517f08c379a000000000000000000000000000000000000000000000000000000000815260040161154b906127d7565b60405180910390fd5b80600560008573ffffffffffffffffffffffffffffffffffffffff1673ffffffffffffffffffffffffffffffffffffffff16815260200190815260200160002060008473ffffffffffffffffffffffffffffffffffffffff1673ffffffffffffffffffffffffffffffffffffffff16815260200190815260200160002060006101000a81548160ff0219169083151502179055508173ffffffffffffffffffffffffffffffffffffffff168373ffffffffffffffffffffffffffffffffffffffff167f17307eab39ab6107e8899845ad3d59bd9653f200f220920489ca2b5937696c3183604051611645919061271a565b60405180910390a3505050565b61165d84848461127e565b61166984848484611808565b6116a8576040517f08c379a000000000000000000000000000000000000000000000000000000000815260040161169f90612757565b60405180910390fd5b50505050565b606060405180602001604052806000815250905090565b60606116d082611073565b61170f576040517f08c379a000000000000000000000000000000000000000000000000000000000815260040161170690612917565b60405180910390fd5b60006117196116ae565b905060008151116117395760405180602001604052806000815250611764565b806117438461199f565b60405160200161175492919061266d565b6040516020818303038152906040525b915050919050565b611786828260405180602001604052806000815250611b4c565b5050565b61179382611073565b6117d2576040517f08c379a00000000000000000000000000000000000000000000000000000000081526004016117c990612877565b60405180910390fd5b806006600084815260200190815260200160002090805190602001906117f9929190611ddb565b505050565b505050565b505050565b60006118298473ffffffffffffffffffffffffffffffffffffffff16611ba7565b15611992578373ffffffffffffffffffffffffffffffffffffffff1663150b7a026118526110df565b8786866040518563ffffffff1660e01b815260040161187494939291906126ac565b602060405180830381600087803b15801561188e57600080fd5b505af19250505080156118bf57506040513d601f19601f820116820180604052508101906118bc9190612187565b60015b611942573d80600081146118ef576040519150601f19603f3d011682016040523d82523d6000602084013e6118f4565b606091505b5060008151141561193a576040517f08c379a000000000000000000000000000000000000000000000000000000000815260040161193190612757565b60405180910390fd5b805181602001fd5b63150b7a0260e01b7bffffffffffffffffffffffffffffffffffffffffffffffffffffffff1916817bffffffffffffffffffffffffffffffffffffffffffffffffffffffff191614915050611997565b600190505b949350505050565b606060008214156119e7576040518060400160405280600181526020017f30000000000000000000000000000000000000000000000000000000000000008152509050611b47565b600082905060005b60008214611a19578080611a0290612cb8565b915050600a82611a129190612b3a565b91506119ef565b60008167ffffffffffffffff811115611a5b577f4e487b7100000000000000000000000000000000000000000000000000000000600052604160045260246000fd5b6040519080825280601f01601f191660200182016040528015611a8d5781602001600182028036833780820191505090505b5090505b60008514611b4057600182611aa69190612b6b565b9150600a85611ab59190612d01565b6030611ac19190612ae4565b60f81b818381518110611afd577f4e487b7100000000000000000000000000000000000000000000000000000000600052603260045260246000fd5b60200101907effffffffffffffffffffffffffffffffffffffffffffffffffffffffffffff1916908160001a905350600a85611b399190612b3a565b9450611a91565b8093505050505b919050565b611b568383611bca565b611b636000848484611808565b611ba2576040517f08c379a0000000000000000000000000000000000000000000000000000000008152600401611b9990612757565b60405180910390fd5b505050565b6000808273ffffffffffffffffffffffffffffffffffffffff163b119050919050565b600073ffffffffffffffffffffffffffffffffffffffff168273ffffffffffffffffffffffffffffffffffffffff161415611c3a576040517f08c379a0000000000000000000000000000000000000000000000000000000008152600401611c31906128b7565b60405180910390fd5b611c4381611073565b15611c83576040517f08c379a0000000000000000000000000000000000000000000000000000000008152600401611c7a90612797565b60405180910390fd5b611c8f600083836117fe565b6001600360008473ffffffffffffffffffffffffffffffffffffffff1673ffffffffffffffffffffffffffffffffffffffff1681526020019081526020016000206000828254611cdf9190612ae4565b92505081905550816002600083815260200190815260200160002060006101000a81548173ffffffffffffffffffffffffffffffffffffffff021916908373ffffffffffffffffffffffffffffffffffffffff160217905550808273ffffffffffffffffffffffffffffffffffffffff16600073ffffffffffffffffffffffffffffffffffffffff167fddf252ad1be2c89b69c2b068fc378daa952ba7f163c4a11628f55a4df523b3ef60405160405180910390a4611da060008383611803565b5050565b60405180606001604052806000815260200160608152602001600073ffffffffffffffffffffffffffffffffffffffff1681525090565b828054611de790612c55565b90600052602060002090601f016020900481019282611e095760008555611e50565b82601f10611e2257805160ff1916838001178555611e50565b82800160010185558215611e50579182015b82811115611e4f578251825591602001919060010190611e34565b5b509050611e5d9190611e61565b5090565b5b80821115611e7a576000816000905550600101611e62565b5090565b6000611e91611e8c846129f5565b6129d0565b905082815260208101848484011115611ea957600080fd5b611eb4848285612c13565b509392505050565b6000611ecf611eca84612a26565b6129d0565b905082815260208101848484011115611ee757600080fd5b611ef2848285612c13565b509392505050565b600081359050611f09816132cc565b92915050565b600081359050611f1e816132e3565b92915050565b600081359050611f33816132fa565b92915050565b600081519050611f48816132fa565b92915050565b600082601f830112611f5f57600080fd5b8135611f6f848260208601611e7e565b91505092915050565b600082601f830112611f8957600080fd5b8135611f99848260208601611ebc565b91505092915050565b600081359050611fb181613311565b92915050565b600060208284031215611fc957600080fd5b6000611fd784828501611efa565b91505092915050565b60008060408385031215611ff357600080fd5b600061200185828601611efa565b925050602061201285828601611efa565b9150509250929050565b60008060006060848603121561203157600080fd5b600061203f86828701611efa565b935050602061205086828701611efa565b925050604061206186828701611fa2565b9150509250925092565b6000806000806080858703121561208157600080fd5b600061208f87828801611efa565b94505060206120a087828801611efa565b93505060406120b187828801611fa2565b925050606085013567ffffffffffffffff8111156120ce57600080fd5b6120da87828801611f4e565b91505092959194509250565b600080604083850312156120f957600080fd5b600061210785828601611efa565b925050602061211885828601611f0f565b9150509250929050565b6000806040838503121561213557600080fd5b600061214385828601611efa565b925050602061215485828601611fa2565b9150509250929050565b60006020828403121561217057600080fd5b600061217e84828501611f24565b91505092915050565b60006020828403121561219957600080fd5b60006121a784828501611f39565b91505092915050565b6000602082840312156121c257600080fd5b600082013567ffffffffffffffff8111156121dc57600080fd5b6121e884828501611f78565b91505092915050565b60006020828403121561220357600080fd5b600061221184828501611fa2565b91505092915050565b600061222683836125ff565b905092915050565b61223781612b9f565b82525050565b61224681612b9f565b82525050565b600061225782612a67565b6122618185612a95565b93508360208202850161227385612a57565b8060005b858110156122af5784840389528151612290858261221a565b945061229b83612a88565b925060208a01995050600181019050612277565b50829750879550505050505092915050565b6122ca81612bb1565b82525050565b60006122db82612a72565b6122e58185612aa6565b93506122f5818560208601612c22565b6122fe81612dee565b840191505092915050565b600061231482612a7d565b61231e8185612ab7565b935061232e818560208601612c22565b61233781612dee565b840191505092915050565b600061234d82612a7d565b6123578185612ac8565b9350612367818560208601612c22565b61237081612dee565b840191505092915050565b600061238682612a7d565b6123908185612ad9565b93506123a0818560208601612c22565b80840191505092915050565b60006123b9603283612ac8565b91506123c482612dff565b604082019050919050565b60006123dc602583612ac8565b91506123e782612e4e565b604082019050919050565b60006123ff601c83612ac8565b915061240a82612e9d565b602082019050919050565b6000612422602483612ac8565b915061242d82612ec6565b604082019050919050565b6000612445601983612ac8565b915061245082612f15565b602082019050919050565b6000612468602c83612ac8565b915061247382612f3e565b604082019050919050565b600061248b603883612ac8565b915061249682612f8d565b604082019050919050565b60006124ae602a83612ac8565b91506124b982612fdc565b604082019050919050565b60006124d1602983612ac8565b91506124dc8261302b565b604082019050919050565b60006124f4602e83612ac8565b91506124ff8261307a565b604082019050919050565b6000612517603383612ac8565b9150612522826130c9565b604082019050919050565b600061253a602083612ac8565b915061254582613118565b602082019050919050565b600061255d603183612ac8565b915061256882613141565b604082019050919050565b6000612580602c83612ac8565b915061258b82613190565b604082019050919050565b60006125a3602f83612ac8565b91506125ae826131df565b604082019050919050565b60006125c6602183612ac8565b91506125d18261322e565b604082019050919050565b60006125e9603183612ac8565b91506125f48261327d565b604082019050919050565b6000606083016000830151612617600086018261264f565b506020830151848203602086015261262f8282612309565b9150506040830151612644604086018261222e565b508091505092915050565b61265881612c09565b82525050565b61266781612c09565b82525050565b6000612679828561237b565b9150612685828461237b565b91508190509392505050565b60006020820190506126a6600083018461223d565b92915050565b60006080820190506126c1600083018761223d565b6126ce602083018661223d565b6126db604083018561265e565b81810360608301526126ed81846122d0565b905095945050505050565b60006020820190508181036000830152612712818461224c565b905092915050565b600060208201905061272f60008301846122c1565b92915050565b6000602082019050818103600083015261274f8184612342565b905092915050565b60006020820190508181036000830152612770816123ac565b9050919050565b60006020820190508181036000830152612790816123cf565b9050919050565b600060208201905081810360008301526127b0816123f2565b9050919050565b600060208201905081810360008301526127d081612415565b9050919050565b600060208201905081810360008301526127f081612438565b9050919050565b600060208201905081810360008301526128108161245b565b9050919050565b600060208201905081810360008301526128308161247e565b9050919050565b60006020820190508181036000830152612850816124a1565b9050919050565b60006020820190508181036000830152612870816124c4565b9050919050565b60006020820190508181036000830152612890816124e7565b9050919050565b600060208201905081810360008301526128b08161250a565b9050919050565b600060208201905081810360008301526128d08161252d565b9050919050565b600060208201905081810360008301526128f081612550565b9050919050565b6000602082019050818103600083015261291081612573565b9050919050565b6000602082019050818103600083015261293081612596565b9050919050565b60006020820190508181036000830152612950816125b9565b9050919050565b60006020820190508181036000830152612970816125dc565b9050919050565b600060208201905061298c600083018461265e565b92915050565b60006060820190506129a7600083018661265e565b81810360208301526129b98185612342565b90506129c8604083018461223d565b949350505050565b60006129da6129eb565b90506129e68282612c87565b919050565b6000604051905090565b600067ffffffffffffffff821115612a1057612a0f612dbf565b5b612a1982612dee565b9050602081019050919050565b600067ffffffffffffffff821115612a4157612a40612dbf565b5b612a4a82612dee565b9050602081019050919050565b6000819050602082019050919050565b600081519050919050565b600081519050919050565b600081519050919050565b6000602082019050919050565b600082825260208201905092915050565b600082825260208201905092915050565b600082825260208201905092915050565b600082825260208201905092915050565b600081905092915050565b6000612aef82612c09565b9150612afa83612c09565b9250827fffffffffffffffffffffffffffffffffffffffffffffffffffffffffffffffff03821115612b2f57612b2e612d32565b5b828201905092915050565b6000612b4582612c09565b9150612b5083612c09565b925082612b6057612b5f612d61565b5b828204905092915050565b6000612b7682612c09565b9150612b8183612c09565b925082821015612b9457612b93612d32565b5b828203905092915050565b6000612baa82612be9565b9050919050565b60008115159050919050565b60007fffffffff0000000000000000000000000000000000000000000000000000000082169050919050565b600073ffffffffffffffffffffffffffffffffffffffff82169050919050565b6000819050919050565b82818337600083830152505050565b60005b83811015612c40578082015181840152602081019050612c25565b83811115612c4f576000848401525b50505050565b60006002820490506001821680612c6d57607f821691505b60208210811415612c8157612c80612d90565b5b50919050565b612c9082612dee565b810181811067ffffffffffffffff82111715612caf57612cae612dbf565b5b80604052505050565b6000612cc382612c09565b91507fffffffffffffffffffffffffffffffffffffffffffffffffffffffffffffffff821415612cf657612cf5612d32565b5b600182019050919050565b6000612d0c82612c09565b9150612d1783612c09565b925082612d2757612d26612d61565b5b828206905092915050565b7f4e487b7100000000000000000000000000000000000000000000000000000000600052601160045260246000fd5b7f4e487b7100000000000000000000000000000000000000000000000000000000600052601260045260246000fd5b7f4e487b7100000000000000000000000000000000000000000000000000000000600052602260045260246000fd5b7f4e487b7100000000000000000000000000000000000000000000000000000000600052604160045260246000fd5b6000601f19601f8301169050919050565b7f4552433732313a207472616e7366657220746f206e6f6e20455243373231526560008201527f63656976657220696d706c656d656e7465720000000000000000000000000000602082015250565b7f4552433732313a207472616e736665722066726f6d20696e636f72726563742060008201527f6f776e6572000000000000000000000000000000000000000000000000000000602082015250565b7f4552433732313a20746f6b656e20616c7265616479206d696e74656400000000600082015250565b7f4552433732313a207472616e7366657220746f20746865207a65726f2061646460008201527f7265737300000000000000000000000000000000000000000000000000000000602082015250565b7f4552433732313a20617070726f766520746f2063616c6c657200000000000000600082015250565b7f4552433732313a206f70657261746f7220717565727920666f72206e6f6e657860008201527f697374656e7420746f6b656e0000000000000000000000000000000000000000602082015250565b7f4552433732313a20617070726f76652063616c6c6572206973206e6f74206f7760008201527f6e6572206e6f7220617070726f76656420666f7220616c6c0000000000000000602082015250565b7f4552433732313a2062616c616e636520717565727920666f7220746865207a6560008201527f726f206164647265737300000000000000000000000000000000000000000000602082015250565b7f4552433732313a206f776e657220717565727920666f72206e6f6e657869737460008201527f656e7420746f6b656e0000000000000000000000000000000000000000000000602082015250565b7f45524337323155524953746f726167653a2055524920736574206f66206e6f6e60008201527f6578697374656e7420746f6b656e000000000000000000000000000000000000602082015250565b7f4d757374204f776e20746865206e667420796f752077616e7420746f2073656c60008201527f65637420617320796f75722070726f66696c6500000000000000000000000000602082015250565b7f4552433732313a206d696e7420746f20746865207a65726f2061646472657373600082015250565b7f45524337323155524953746f726167653a2055524920717565727920666f722060008201527f6e6f6e6578697374656e7420746f6b656e000000000000000000000000000000602082015250565b7f4552433732313a20617070726f76656420717565727920666f72206e6f6e657860008201527f697374656e7420746f6b656e0000000000000000000000000000000000000000602082015250565b7f4552433732314d657461646174613a2055524920717565727920666f72206e6f60008201527f6e6578697374656e7420746f6b656e0000000000000000000000000000000000602082015250565b7f4552433732313a20617070726f76616c20746f2063757272656e74206f776e6560008201527f7200000000000000000000000000000000000000000000000000000000000000602082015250565b7f4552433732313a207472616e736665722063616c6c6572206973206e6f74206f60008201527f776e6572206e6f7220617070726f766564000000000000000000000000000000602082015250565b6132d581612b9f565b81146132e057600080fd5b50565b6132ec81612bb1565b81146132f757600080fd5b50565b61330381612bbd565b811461330e57600080fd5b50565b61331a81612c09565b811461332557600080fd5b5056fea2646970667358221220f6774d3da6d2a19b799fd54d39bdc4fbb0dbdcb80d9ddef84d35e27664c6249364736f6c63430008040033",
  "linkReferences": {},
  "deployedLinkReferences": {}
}