{
  "_format": "hh-sol-artifact-1",
  "contractName": "DecentralizedSocialApp",
  "sourceName": "contracts/DecentralizedSocialApp.sol",
  "abi": [
    {
      "inputs": [],
      "stateMutability": "nonpayable",
      "type": "constructor"
    },
    {
      "anonymous": false,
      "inputs": [
        {
          "indexed": true,
          "internalType": "address",
          "name": "owner",
          "type": "address"
        },
        {
          "indexed": true,
          "internalType": "address",
          "name": "approved",
          "type": "address"
        },
        {
          "indexed": true,
          "internalType": "uint256",
          "name": "tokenId",
          "type": "uint256"
        }
      ],
      "name": "Approval",
      "type": "event"
    },
    {
      "anonymous": false,
      "inputs": [
        {
          "indexed": true,
          "internalType": "address",
          "name": "owner",
          "type": "address"
        },
        {
          "indexed": true,
          "internalType": "address",
          "name": "operator",
          "type": "address"
        },
        {
          "indexed": false,
          "internalType": "bool",
          "name": "approved",
          "type": "bool"
        }
      ],
      "name": "ApprovalForAll",
      "type": "event"
    },
    {
      "anonymous": false,
      "inputs": [
        {
          "indexed": false,
          "internalType": "uint256",
          "name": "id",
          "type": "uint256"
        },
        {
          "indexed": false,
          "internalType": "string",
          "name": "hash",
          "type": "string"
        },
        {
          "indexed": false,
          "internalType": "address",
          "name": "author",
          "type": "address"
        }
      ],
      "name": "PostCreated",
      "type": "event"
    },
    {
      "anonymous": false,
      "inputs": [
        {
          "indexed": true,
          "internalType": "address",
          "name": "from",
          "type": "address"
        },
        {
          "indexed": true,
          "internalType": "address",
          "name": "to",
          "type": "address"
        },
        {
          "indexed": true,
          "internalType": "uint256",
          "name": "tokenId",
          "type": "uint256"
        }
      ],
      "name": "Transfer",
      "type": "event"
    },
    {
      "inputs": [
        {
          "internalType": "address",
          "name": "to",
          "type": "address"
        },
        {
          "internalType": "uint256",
          "name": "tokenId",
          "type": "uint256"
        }
      ],
      "name": "approve",
      "outputs": [],
      "stateMutability": "nonpayable",
      "type": "function"
    },
    {
      "inputs": [
        {
          "internalType": "address",
          "name": "owner",
          "type": "address"
        }
      ],
      "name": "balanceOf",
      "outputs": [
        {
          "internalType": "uint256",
          "name": "",
          "type": "uint256"
        }
      ],
      "stateMutability": "view",
      "type": "function"
    },
    {
      "inputs": [
        {
          "internalType": "uint256",
          "name": "tokenId",
          "type": "uint256"
        }
      ],
      "name": "getApproved",
      "outputs": [
        {
          "internalType": "address",
          "name": "",
          "type": "address"
        }
      ],
      "stateMutability": "view",
      "type": "function"
    },
    {
      "inputs": [
        {
          "internalType": "address",
          "name": "owner",
          "type": "address"
        },
        {
          "internalType": "address",
          "name": "operator",
          "type": "address"
        }
      ],
      "name": "isApprovedForAll",
      "outputs": [
        {
          "internalType": "bool",
          "name": "",
          "type": "bool"
        }
      ],
      "stateMutability": "view",
      "type": "function"
    },
    {
      "inputs": [
        {
          "internalType": "string",
          "name": "_tokenURI",
          "type": "string"
        }
      ],
      "name": "mint",
      "outputs": [
        {
          "internalType": "uint256",
          "name": "",
          "type": "uint256"
        }
      ],
      "stateMutability": "nonpayable",
      "type": "function"
    },
    {
      "inputs": [],
      "name": "name",
      "outputs": [
        {
          "internalType": "string",
          "name": "",
          "type": "string"
        }
      ],
      "stateMutability": "view",
      "type": "function"
    },
    {
      "inputs": [
        {
          "internalType": "uint256",
          "name": "tokenId",
          "type": "uint256"
        }
      ],
      "name": "ownerOf",
      "outputs": [
        {
          "internalType": "address",
          "name": "",
          "type": "address"
        }
      ],
      "stateMutability": "view",
      "type": "function"
    },
    {
      "inputs": [],
      "name": "postCount",
      "outputs": [
        {
          "internalType": "uint256",
          "name": "",
          "type": "uint256"
        }
      ],
      "stateMutability": "view",
      "type": "function"
    },
    {
      "inputs": [
        {
          "internalType": "uint256",
          "name": "",
          "type": "uint256"
        }
      ],
      "name": "posts",
      "outputs": [
        {
          "internalType": "uint256",
          "name": "id",
          "type": "uint256"
        },
        {
          "internalType": "string",
          "name": "hash",
          "type": "string"
        },
        {
          "internalType": "address",
          "name": "author",
          "type": "address"
        }
      ],
      "stateMutability": "view",
      "type": "function"
    },
    {
      "inputs": [
        {
          "internalType": "address",
          "name": "",
          "type": "address"
        }
      ],
      "name": "profiles",
      "outputs": [
        {
          "internalType": "uint256",
          "name": "",
          "type": "uint256"
        }
      ],
      "stateMutability": "view",
      "type": "function"
    },
    {
      "inputs": [
        {
          "internalType": "address",
          "name": "from",
          "type": "address"
        },
        {
          "internalType": "address",
          "name": "to",
          "type": "address"
        },
        {
          "internalType": "uint256",
          "name": "tokenId",
          "type": "uint256"
        }
      ],
      "name": "safeTransferFrom",
      "outputs": [],
      "stateMutability": "nonpayable",
      "type": "function"
    },
    {
      "inputs": [
        {
          "internalType": "address",
          "name": "from",
          "type": "address"
        },
        {
          "internalType": "address",
          "name": "to",
          "type": "address"
        },
        {
          "internalType": "uint256",
          "name": "tokenId",
          "type": "uint256"
        },
        {
          "internalType": "bytes",
          "name": "_data",
          "type": "bytes"
        }
      ],
      "name": "safeTransferFrom",
      "outputs": [],
      "stateMutability": "nonpayable",
      "type": "function"
    },
    {
      "inputs": [
        {
          "internalType": "address",
          "name": "operator",
          "type": "address"
        },
        {
          "internalType": "bool",
          "name": "approved",
          "type": "bool"
        }
      ],
      "name": "setApprovalForAll",
      "outputs": [],
      "stateMutability": "nonpayable",
      "type": "function"
    },
    {
      "inputs": [
        {
          "internalType": "bytes4",
          "name": "interfaceId",
          "type": "bytes4"
        }
      ],
      "name": "supportsInterface",
      "outputs": [
        {
          "internalType": "bool",
          "name": "",
          "type": "bool"
        }
      ],
      "stateMutability": "view",
      "type": "function"
    },
    {
      "inputs": [],
      "name": "symbol",
      "outputs": [
        {
          "internalType": "string",
          "name": "",
          "type": "string"
        }
      ],
      "stateMutability": "view",
      "type": "function"
    },
    {
      "inputs": [],
      "name": "tokenCount",
      "outputs": [
        {
          "internalType": "uint256",
          "name": "",
          "type": "uint256"
        }
      ],
      "stateMutability": "view",
      "type": "function"
    },
    {
      "inputs": [
        {
          "internalType": "uint256",
          "name": "tokenId",
          "type": "uint256"
        }
      ],
      "name": "tokenURI",
      "outputs": [
        {
          "internalType": "string",
          "name": "",
          "type": "string"
        }
      ],
      "stateMutability": "view",
      "type": "function"
    },
    {
      "inputs": [
        {
          "internalType": "address",
          "name": "from",
          "type": "address"
        },
        {
          "internalType": "address",
          "name": "to",
          "type": "address"
        },
        {
          "internalType": "uint256",
          "name": "tokenId",
          "type": "uint256"
        }
      ],
      "name": "transferFrom",
      "outputs": [],
      "stateMutability": "nonpayable",
      "type": "function"
    }
  ],
  "bytecode": "0x60806040523480156200001157600080fd5b506040518060400160405280601681526020017f446563656e7472616c697a6564536f6369616c417070000000000000000000008152506040518060400160405280600481526020017f4441505000000000000000000000000000000000000000000000000000000000815250816000908051906020019062000096929190620000b8565b508060019080519060200190620000af929190620000b8565b505050620001cd565b828054620000c69062000168565b90600052602060002090601f016020900481019282620000ea576000855562000136565b82601f106200010557805160ff191683800117855562000136565b8280016001018555821562000136579182015b828111156200013557825182559160200191906001019062000118565b5b50905062000145919062000149565b5090565b5b80821115620001645760008160009055506001016200014a565b5090565b600060028204905060018216806200018157607f821691505b602082108114156200019857620001976200019e565b5b50919050565b7f4e487b7100000000000000000000000000000000000000000000000000000000600052602260045260246000fd5b612dde80620001dd6000396000f3fe608060405234801561001057600080fd5b50600436106101165760003560e01c806370a08231116100a2578063b88d4fde11610071578063b88d4fde146102f5578063bbe1562714610311578063c87b56dd14610341578063d85d3d2714610371578063e985e9c5146103a157610116565b806370a082311461026d57806395d89b411461029d5780639f181b5e146102bb578063a22cb465146102d957610116565b80630b1e7f83116100e95780630b1e7f83146101b557806317906c2e146101e757806323b872dd1461020557806342842e0e146102215780636352211e1461023d57610116565b806301ffc9a71461011b57806306fdde031461014b578063081812fc14610169578063095ea7b314610199575b600080fd5b61013560048036038101906101309190611e0c565b6103d1565b6040516101429190612253565b60405180910390f35b6101536104b3565b604051610160919061226e565b60405180910390f35b610183600480360381019061017e9190611e9f565b610545565b60405161019091906121ec565b60405180910390f35b6101b360048036038101906101ae9190611dd0565b6105ca565b005b6101cf60048036038101906101ca9190611e9f565b6106e2565b6040516101de939291906124ab565b60405180910390f35b6101ef6107b4565b6040516101fc9190612490565b60405180910390f35b61021f600480360381019061021a9190611cca565b6107ba565b005b61023b60048036038101906102369190611cca565b61081a565b005b61025760048036038101906102529190611e9f565b61083a565b60405161026491906121ec565b60405180910390f35b61028760048036038101906102829190611c65565b6108ec565b6040516102949190612490565b60405180910390f35b6102a56109a4565b6040516102b2919061226e565b60405180910390f35b6102c3610a36565b6040516102d09190612490565b60405180910390f35b6102f360048036038101906102ee9190611d94565b610a3c565b005b61030f600480360381019061030a9190611d19565b610a52565b005b61032b60048036038101906103269190611c65565b610ab4565b6040516103389190612490565b60405180910390f35b61035b60048036038101906103569190611e9f565b610acc565b604051610368919061226e565b60405180910390f35b61038b60048036038101906103869190611e5e565b610c1e565b6040516103989190612490565b60405180910390f35b6103bb60048036038101906103b69190611c8e565b610c5a565b6040516103c89190612253565b60405180910390f35b60007f80ac58cd000000000000000000000000000000000000000000000000000000007bffffffffffffffffffffffffffffffffffffffffffffffffffffffff1916827bffffffffffffffffffffffffffffffffffffffffffffffffffffffff1916148061049c57507f5b5e139f000000000000000000000000000000000000000000000000000000007bffffffffffffffffffffffffffffffffffffffffffffffffffffffff1916827bffffffffffffffffffffffffffffffffffffffffffffffffffffffff1916145b806104ac57506104ab82610cee565b5b9050919050565b6060600080546104c290612724565b80601f01602080910402602001604051908101604052809291908181526020018280546104ee90612724565b801561053b5780601f106105105761010080835404028352916020019161053b565b820191906000526020600020905b81548152906001019060200180831161051e57829003601f168201915b5050505050905090565b600061055082610d58565b61058f576040517f08c379a000000000000000000000000000000000000000000000000000000000815260040161058690612410565b60405180910390fd5b6004600083815260200190815260200160002060009054906101000a900473ffffffffffffffffffffffffffffffffffffffff169050919050565b60006105d58261083a565b90508073ffffffffffffffffffffffffffffffffffffffff168373ffffffffffffffffffffffffffffffffffffffff161415610646576040517f08c379a000000000000000000000000000000000000000000000000000000000815260040161063d90612450565b60405180910390fd5b8073ffffffffffffffffffffffffffffffffffffffff16610665610dc4565b73ffffffffffffffffffffffffffffffffffffffff16148061069457506106938161068e610dc4565b610c5a565b5b6106d3576040517f08c379a00000000000000000000000000000000000000000000000000000000081526004016106ca90612350565b60405180910390fd5b6106dd8383610dcc565b505050565b600960205280600052604060002060009150905080600001549080600101805461070b90612724565b80601f016020809104026020016040519081016040528092919081815260200182805461073790612724565b80156107845780601f1061075957610100808354040283529160200191610784565b820191906000526020600020905b81548152906001019060200180831161076757829003601f168201915b5050505050908060020160009054906101000a900473ffffffffffffffffffffffffffffffffffffffff16905083565b60085481565b6107cb6107c5610dc4565b82610e85565b61080a576040517f08c379a000000000000000000000000000000000000000000000000000000000815260040161080190612470565b60405180910390fd5b610815838383610f63565b505050565b61083583838360405180602001604052806000815250610a52565b505050565b6000806002600084815260200190815260200160002060009054906101000a900473ffffffffffffffffffffffffffffffffffffffff169050600073ffffffffffffffffffffffffffffffffffffffff168173ffffffffffffffffffffffffffffffffffffffff1614156108e3576040517f08c379a00000000000000000000000000000000000000000000000000000000081526004016108da90612390565b60405180910390fd5b80915050919050565b60008073ffffffffffffffffffffffffffffffffffffffff168273ffffffffffffffffffffffffffffffffffffffff16141561095d576040517f08c379a000000000000000000000000000000000000000000000000000000000815260040161095490612370565b60405180910390fd5b600360008373ffffffffffffffffffffffffffffffffffffffff1673ffffffffffffffffffffffffffffffffffffffff168152602001908152602001600020549050919050565b6060600180546109b390612724565b80601f01602080910402602001604051908101604052809291908181526020018280546109df90612724565b8015610a2c5780601f10610a0157610100808354040283529160200191610a2c565b820191906000526020600020905b815481529060010190602001808311610a0f57829003601f168201915b5050505050905090565b60075481565b610a4e610a47610dc4565b83836111ca565b5050565b610a63610a5d610dc4565b83610e85565b610aa2576040517f08c379a0000000000000000000000000000000000000000000000000000000008152600401610a9990612470565b60405180910390fd5b610aae84848484611337565b50505050565b600a6020528060005260406000206000915090505481565b6060610ad782610d58565b610b16576040517f08c379a0000000000000000000000000000000000000000000000000000000008152600401610b0d906123f0565b60405180910390fd5b6000600660008481526020019081526020016000208054610b3690612724565b80601f0160208091040260200160405190810160405280929190818152602001828054610b6290612724565b8015610baf5780601f10610b8457610100808354040283529160200191610baf565b820191906000526020600020905b815481529060010190602001808311610b9257829003601f168201915b505050505090506000610bc0611393565b9050600081511415610bd6578192505050610c19565b600082511115610c0b578082604051602001610bf39291906121c8565b60405160208183030381529060405292505050610c19565b610c14846113aa565b925050505b919050565b600060076000815480929190610c3390612787565b9190505550610c4433600754611451565b610c506007548361146f565b6007549050919050565b6000600560008473ffffffffffffffffffffffffffffffffffffffff1673ffffffffffffffffffffffffffffffffffffffff16815260200190815260200160002060008373ffffffffffffffffffffffffffffffffffffffff1673ffffffffffffffffffffffffffffffffffffffff16815260200190815260200160002060009054906101000a900460ff16905092915050565b60007f01ffc9a7000000000000000000000000000000000000000000000000000000007bffffffffffffffffffffffffffffffffffffffffffffffffffffffff1916827bffffffffffffffffffffffffffffffffffffffffffffffffffffffff1916149050919050565b60008073ffffffffffffffffffffffffffffffffffffffff166002600084815260200190815260200160002060009054906101000a900473ffffffffffffffffffffffffffffffffffffffff1673ffffffffffffffffffffffffffffffffffffffff1614159050919050565b600033905090565b816004600083815260200190815260200160002060006101000a81548173ffffffffffffffffffffffffffffffffffffffff021916908373ffffffffffffffffffffffffffffffffffffffff160217905550808273ffffffffffffffffffffffffffffffffffffffff16610e3f8361083a565b73ffffffffffffffffffffffffffffffffffffffff167f8c5be1e5ebec7d5bd14f71427d1e84f3dd0314c0f7b2291e5b200ac8c7c3b92560405160405180910390a45050565b6000610e9082610d58565b610ecf576040517f08c379a0000000000000000000000000000000000000000000000000000000008152600401610ec690612330565b60405180910390fd5b6000610eda8361083a565b90508073ffffffffffffffffffffffffffffffffffffffff168473ffffffffffffffffffffffffffffffffffffffff161480610f4957508373ffffffffffffffffffffffffffffffffffffffff16610f3184610545565b73ffffffffffffffffffffffffffffffffffffffff16145b80610f5a5750610f598185610c5a565b5b91505092915050565b8273ffffffffffffffffffffffffffffffffffffffff16610f838261083a565b73ffffffffffffffffffffffffffffffffffffffff1614610fd9576040517f08c379a0000000000000000000000000000000000000000000000000000000008152600401610fd0906122b0565b60405180910390fd5b600073ffffffffffffffffffffffffffffffffffffffff168273ffffffffffffffffffffffffffffffffffffffff161415611049576040517f08c379a0000000000000000000000000000000000000000000000000000000008152600401611040906122f0565b60405180910390fd5b6110548383836114e3565b61105f600082610dcc565b6001600360008573ffffffffffffffffffffffffffffffffffffffff1673ffffffffffffffffffffffffffffffffffffffff16815260200190815260200160002060008282546110af919061263a565b925050819055506001600360008473ffffffffffffffffffffffffffffffffffffffff1673ffffffffffffffffffffffffffffffffffffffff168152602001908152602001600020600082825461110691906125b3565b92505081905550816002600083815260200190815260200160002060006101000a81548173ffffffffffffffffffffffffffffffffffffffff021916908373ffffffffffffffffffffffffffffffffffffffff160217905550808273ffffffffffffffffffffffffffffffffffffffff168473ffffffffffffffffffffffffffffffffffffffff167fddf252ad1be2c89b69c2b068fc378daa952ba7f163c4a11628f55a4df523b3ef60405160405180910390a46111c58383836114e8565b505050565b8173ffffffffffffffffffffffffffffffffffffffff168373ffffffffffffffffffffffffffffffffffffffff161415611239576040517f08c379a000000000000000000000000000000000000000000000000000000000815260040161123090612310565b60405180910390fd5b80600560008573ffffffffffffffffffffffffffffffffffffffff1673ffffffffffffffffffffffffffffffffffffffff16815260200190815260200160002060008473ffffffffffffffffffffffffffffffffffffffff1673ffffffffffffffffffffffffffffffffffffffff16815260200190815260200160002060006101000a81548160ff0219169083151502179055508173ffffffffffffffffffffffffffffffffffffffff168373ffffffffffffffffffffffffffffffffffffffff167f17307eab39ab6107e8899845ad3d59bd9653f200f220920489ca2b5937696c318360405161132a9190612253565b60405180910390a3505050565b611342848484610f63565b61134e848484846114ed565b61138d576040517f08c379a000000000000000000000000000000000000000000000000000000000815260040161138490612290565b60405180910390fd5b50505050565b606060405180602001604052806000815250905090565b60606113b582610d58565b6113f4576040517f08c379a00000000000000000000000000000000000000000000000000000000081526004016113eb90612430565b60405180910390fd5b60006113fe611393565b9050600081511161141e5760405180602001604052806000815250611449565b8061142884611684565b6040516020016114399291906121c8565b6040516020818303038152906040525b915050919050565b61146b828260405180602001604052806000815250611831565b5050565b61147882610d58565b6114b7576040517f08c379a00000000000000000000000000000000000000000000000000000000081526004016114ae906123b0565b60405180910390fd5b806006600084815260200190815260200160002090805190602001906114de929190611a89565b505050565b505050565b505050565b600061150e8473ffffffffffffffffffffffffffffffffffffffff1661188c565b15611677578373ffffffffffffffffffffffffffffffffffffffff1663150b7a02611537610dc4565b8786866040518563ffffffff1660e01b81526004016115599493929190612207565b602060405180830381600087803b15801561157357600080fd5b505af19250505080156115a457506040513d601f19601f820116820180604052508101906115a19190611e35565b60015b611627573d80600081146115d4576040519150601f19603f3d011682016040523d82523d6000602084013e6115d9565b606091505b5060008151141561161f576040517f08c379a000000000000000000000000000000000000000000000000000000000815260040161161690612290565b60405180910390fd5b805181602001fd5b63150b7a0260e01b7bffffffffffffffffffffffffffffffffffffffffffffffffffffffff1916817bffffffffffffffffffffffffffffffffffffffffffffffffffffffff19161491505061167c565b600190505b949350505050565b606060008214156116cc576040518060400160405280600181526020017f3000000000000000000000000000000000000000000000000000000000000000815250905061182c565b600082905060005b600082146116fe5780806116e790612787565b915050600a826116f79190612609565b91506116d4565b60008167ffffffffffffffff811115611740577f4e487b7100000000000000000000000000000000000000000000000000000000600052604160045260246000fd5b6040519080825280601f01601f1916602001820160405280156117725781602001600182028036833780820191505090505b5090505b600085146118255760018261178b919061263a565b9150600a8561179a91906127d0565b60306117a691906125b3565b60f81b8183815181106117e2577f4e487b7100000000000000000000000000000000000000000000000000000000600052603260045260246000fd5b60200101907effffffffffffffffffffffffffffffffffffffffffffffffffffffffffffff1916908160001a905350600a8561181e9190612609565b9450611776565b8093505050505b919050565b61183b83836118af565b61184860008484846114ed565b611887576040517f08c379a000000000000000000000000000000000000000000000000000000000815260040161187e90612290565b60405180910390fd5b505050565b6000808273ffffffffffffffffffffffffffffffffffffffff163b119050919050565b600073ffffffffffffffffffffffffffffffffffffffff168273ffffffffffffffffffffffffffffffffffffffff16141561191f576040517f08c379a0000000000000000000000000000000000000000000000000000000008152600401611916906123d0565b60405180910390fd5b61192881610d58565b15611968576040517f08c379a000000000000000000000000000000000000000000000000000000000815260040161195f906122d0565b60405180910390fd5b611974600083836114e3565b6001600360008473ffffffffffffffffffffffffffffffffffffffff1673ffffffffffffffffffffffffffffffffffffffff16815260200190815260200160002060008282546119c491906125b3565b92505081905550816002600083815260200190815260200160002060006101000a81548173ffffffffffffffffffffffffffffffffffffffff021916908373ffffffffffffffffffffffffffffffffffffffff160217905550808273ffffffffffffffffffffffffffffffffffffffff16600073ffffffffffffffffffffffffffffffffffffffff167fddf252ad1be2c89b69c2b068fc378daa952ba7f163c4a11628f55a4df523b3ef60405160405180910390a4611a85600083836114e8565b5050565b828054611a9590612724565b90600052602060002090601f016020900481019282611ab75760008555611afe565b82601f10611ad057805160ff1916838001178555611afe565b82800160010185558215611afe579182015b82811115611afd578251825591602001919060010190611ae2565b5b509050611b0b9190611b0f565b5090565b5b80821115611b28576000816000905550600101611b10565b5090565b6000611b3f611b3a8461250e565b6124e9565b905082815260208101848484011115611b5757600080fd5b611b628482856126e2565b509392505050565b6000611b7d611b788461253f565b6124e9565b905082815260208101848484011115611b9557600080fd5b611ba08482856126e2565b509392505050565b600081359050611bb781612d4c565b92915050565b600081359050611bcc81612d63565b92915050565b600081359050611be181612d7a565b92915050565b600081519050611bf681612d7a565b92915050565b600082601f830112611c0d57600080fd5b8135611c1d848260208601611b2c565b91505092915050565b600082601f830112611c3757600080fd5b8135611c47848260208601611b6a565b91505092915050565b600081359050611c5f81612d91565b92915050565b600060208284031215611c7757600080fd5b6000611c8584828501611ba8565b91505092915050565b60008060408385031215611ca157600080fd5b6000611caf85828601611ba8565b9250506020611cc085828601611ba8565b9150509250929050565b600080600060608486031215611cdf57600080fd5b6000611ced86828701611ba8565b9350506020611cfe86828701611ba8565b9250506040611d0f86828701611c50565b9150509250925092565b60008060008060808587031215611d2f57600080fd5b6000611d3d87828801611ba8565b9450506020611d4e87828801611ba8565b9350506040611d5f87828801611c50565b925050606085013567ffffffffffffffff811115611d7c57600080fd5b611d8887828801611bfc565b91505092959194509250565b60008060408385031215611da757600080fd5b6000611db585828601611ba8565b9250506020611dc685828601611bbd565b9150509250929050565b60008060408385031215611de357600080fd5b6000611df185828601611ba8565b9250506020611e0285828601611c50565b9150509250929050565b600060208284031215611e1e57600080fd5b6000611e2c84828501611bd2565b91505092915050565b600060208284031215611e4757600080fd5b6000611e5584828501611be7565b91505092915050565b600060208284031215611e7057600080fd5b600082013567ffffffffffffffff811115611e8a57600080fd5b611e9684828501611c26565b91505092915050565b600060208284031215611eb157600080fd5b6000611ebf84828501611c50565b91505092915050565b611ed18161266e565b82525050565b611ee081612680565b82525050565b6000611ef182612570565b611efb8185612586565b9350611f0b8185602086016126f1565b611f14816128bd565b840191505092915050565b6000611f2a8261257b565b611f348185612597565b9350611f448185602086016126f1565b611f4d816128bd565b840191505092915050565b6000611f638261257b565b611f6d81856125a8565b9350611f7d8185602086016126f1565b80840191505092915050565b6000611f96603283612597565b9150611fa1826128ce565b604082019050919050565b6000611fb9602583612597565b9150611fc48261291d565b604082019050919050565b6000611fdc601c83612597565b9150611fe78261296c565b602082019050919050565b6000611fff602483612597565b915061200a82612995565b604082019050919050565b6000612022601983612597565b915061202d826129e4565b602082019050919050565b6000612045602c83612597565b915061205082612a0d565b604082019050919050565b6000612068603883612597565b915061207382612a5c565b604082019050919050565b600061208b602a83612597565b915061209682612aab565b604082019050919050565b60006120ae602983612597565b91506120b982612afa565b604082019050919050565b60006120d1602e83612597565b91506120dc82612b49565b604082019050919050565b60006120f4602083612597565b91506120ff82612b98565b602082019050919050565b6000612117603183612597565b915061212282612bc1565b604082019050919050565b600061213a602c83612597565b915061214582612c10565b604082019050919050565b600061215d602f83612597565b915061216882612c5f565b604082019050919050565b6000612180602183612597565b915061218b82612cae565b604082019050919050565b60006121a3603183612597565b91506121ae82612cfd565b604082019050919050565b6121c2816126d8565b82525050565b60006121d48285611f58565b91506121e08284611f58565b91508190509392505050565b60006020820190506122016000830184611ec8565b92915050565b600060808201905061221c6000830187611ec8565b6122296020830186611ec8565b61223660408301856121b9565b81810360608301526122488184611ee6565b905095945050505050565b60006020820190506122686000830184611ed7565b92915050565b600060208201905081810360008301526122888184611f1f565b905092915050565b600060208201905081810360008301526122a981611f89565b9050919050565b600060208201905081810360008301526122c981611fac565b9050919050565b600060208201905081810360008301526122e981611fcf565b9050919050565b6000602082019050818103600083015261230981611ff2565b9050919050565b6000602082019050818103600083015261232981612015565b9050919050565b6000602082019050818103600083015261234981612038565b9050919050565b600060208201905081810360008301526123698161205b565b9050919050565b600060208201905081810360008301526123898161207e565b9050919050565b600060208201905081810360008301526123a9816120a1565b9050919050565b600060208201905081810360008301526123c9816120c4565b9050919050565b600060208201905081810360008301526123e9816120e7565b9050919050565b600060208201905081810360008301526124098161210a565b9050919050565b600060208201905081810360008301526124298161212d565b9050919050565b6000602082019050818103600083015261244981612150565b9050919050565b6000602082019050818103600083015261246981612173565b9050919050565b6000602082019050818103600083015261248981612196565b9050919050565b60006020820190506124a560008301846121b9565b92915050565b60006060820190506124c060008301866121b9565b81810360208301526124d28185611f1f565b90506124e16040830184611ec8565b949350505050565b60006124f3612504565b90506124ff8282612756565b919050565b6000604051905090565b600067ffffffffffffffff8211156125295761252861288e565b5b612532826128bd565b9050602081019050919050565b600067ffffffffffffffff82111561255a5761255961288e565b5b612563826128bd565b9050602081019050919050565b600081519050919050565b600081519050919050565b600082825260208201905092915050565b600082825260208201905092915050565b600081905092915050565b60006125be826126d8565b91506125c9836126d8565b9250827fffffffffffffffffffffffffffffffffffffffffffffffffffffffffffffffff038211156125fe576125fd612801565b5b828201905092915050565b6000612614826126d8565b915061261f836126d8565b92508261262f5761262e612830565b5b828204905092915050565b6000612645826126d8565b9150612650836126d8565b92508282101561266357612662612801565b5b828203905092915050565b6000612679826126b8565b9050919050565b60008115159050919050565b60007fffffffff0000000000000000000000000000000000000000000000000000000082169050919050565b600073ffffffffffffffffffffffffffffffffffffffff82169050919050565b6000819050919050565b82818337600083830152505050565b60005b8381101561270f5780820151818401526020810190506126f4565b8381111561271e576000848401525b50505050565b6000600282049050600182168061273c57607f821691505b602082108114156127505761274f61285f565b5b50919050565b61275f826128bd565b810181811067ffffffffffffffff8211171561277e5761277d61288e565b5b80604052505050565b6000612792826126d8565b91507fffffffffffffffffffffffffffffffffffffffffffffffffffffffffffffffff8214156127c5576127c4612801565b5b600182019050919050565b60006127db826126d8565b91506127e6836126d8565b9250826127f6576127f5612830565b5b828206905092915050565b7f4e487b7100000000000000000000000000000000000000000000000000000000600052601160045260246000fd5b7f4e487b7100000000000000000000000000000000000000000000000000000000600052601260045260246000fd5b7f4e487b7100000000000000000000000000000000000000000000000000000000600052602260045260246000fd5b7f4e487b7100000000000000000000000000000000000000000000000000000000600052604160045260246000fd5b6000601f19601f8301169050919050565b7f4552433732313a207472616e7366657220746f206e6f6e20455243373231526560008201527f63656976657220696d706c656d656e7465720000000000000000000000000000602082015250565b7f4552433732313a207472616e736665722066726f6d20696e636f72726563742060008201527f6f776e6572000000000000000000000000000000000000000000000000000000602082015250565b7f4552433732313a20746f6b656e20616c7265616479206d696e74656400000000600082015250565b7f4552433732313a207472616e7366657220746f20746865207a65726f2061646460008201527f7265737300000000000000000000000000000000000000000000000000000000602082015250565b7f4552433732313a20617070726f766520746f2063616c6c657200000000000000600082015250565b7f4552433732313a206f70657261746f7220717565727920666f72206e6f6e657860008201527f697374656e7420746f6b656e0000000000000000000000000000000000000000602082015250565b7f4552433732313a20617070726f76652063616c6c6572206973206e6f74206f7760008201527f6e6572206e6f7220617070726f76656420666f7220616c6c0000000000000000602082015250565b7f4552433732313a2062616c616e636520717565727920666f7220746865207a6560008201527f726f206164647265737300000000000000000000000000000000000000000000602082015250565b7f4552433732313a206f776e657220717565727920666f72206e6f6e657869737460008201527f656e7420746f6b656e0000000000000000000000000000000000000000000000602082015250565b7f45524337323155524953746f726167653a2055524920736574206f66206e6f6e60008201527f6578697374656e7420746f6b656e000000000000000000000000000000000000602082015250565b7f4552433732313a206d696e7420746f20746865207a65726f2061646472657373600082015250565b7f45524337323155524953746f726167653a2055524920717565727920666f722060008201527f6e6f6e6578697374656e7420746f6b656e000000000000000000000000000000602082015250565b7f4552433732313a20617070726f76656420717565727920666f72206e6f6e657860008201527f697374656e7420746f6b656e0000000000000000000000000000000000000000602082015250565b7f4552433732314d657461646174613a2055524920717565727920666f72206e6f60008201527f6e6578697374656e7420746f6b656e0000000000000000000000000000000000602082015250565b7f4552433732313a20617070726f76616c20746f2063757272656e74206f776e6560008201527f7200000000000000000000000000000000000000000000000000000000000000602082015250565b7f4552433732313a207472616e736665722063616c6c6572206973206e6f74206f60008201527f776e6572206e6f7220617070726f766564000000000000000000000000000000602082015250565b612d558161266e565b8114612d6057600080fd5b50565b612d6c81612680565b8114612d7757600080fd5b50565b612d838161268c565b8114612d8e57600080fd5b50565b612d9a816126d8565b8114612da557600080fd5b5056fea2646970667358221220302e52b48e0654368f8326ead98eb1708176746c75eff41fbf50c7da60b5bcc364736f6c63430008040033",
  "linkReferences": {},
  "deployedLinkReferences": {}
}